:020000040800F2
:10000000C805002001010008090100080B010008D3
:100010000D0100080F010008110100080000000098
:1000200000000000000000000000000013010008B4
:100030001501000800000000170100081901000860
:100040001B0100081B0100081B0100081B01000820
:100050001B0100081B010008490A0008610A00088A
:10006000790A0008C50A0008DD0A00081B0100081B
:100070001B0100081B0100081B0100081B010008F0
:100080001B0100081B0100081B0100081B010008E0
:100090001B0100081B0100081B010008190B0008C8
:1000A0001B0100081B0100081B0100081B010008C0
:1000B00085140008A5140008D11400081B010008CD
:1000C0001B0100081B0100081B0100081B010008A0
:1000D0001B010008411900086D1900089919000852
:1000E0001B0100081B0100081B010008DFF80CD0F1
:1000F00000F08CFC0048004709300008C8050020CB
:100100000648804706480047FEE7FEE7FEE7FEE7B1
:10011000FEE7FEE7FEE7FEE7FEE7FEE72514000840
:10012000ED00000830B505462A460B4612F8010BD3
:1001300013F8014B08B1A042F8D01CB1002802D03E
:100140006D1CF1E7284630BDCAB2401E10F8011FF1
:100150008A4202D00029F9D100207047F0B480EA29
:100160000102D40F4200B2EB410F02D20246084610
:1001700011464A0042D0C30DDDB2C1F3C752AD1AD9
:10018000202D35DAC1F3160141F4000204B15242C8
:10019000C5F1200602FA06F12A411044B3EBD05F04
:1001A00023D0C4B1012DA0EBC35009DCF0BC4FF04B
:1001B000004202EAC352DBB200F5000000F053BB7C
:1001C000400000F1807000EBC350A0F1807040EA65
:1001D000D170490009E0490841EAC071A0EBC35061
:1001E00000F50000400800EBC350F0BC00F032BB4B
:1001F0006142012202EB4101001BF6E7F0BC7047AF
:1002000081F00041AAE780F00040A7E780EA010200
:1002100010B502F00043400022D04A001FD0010E6A
:1002200001EB1261C0F35600C2F3560240F4000025
:1002300042F40002A0FB022000047F39140400D025
:10024000401C50EA124001D44000491EC2B20C06C4
:1002500004EBD010401C4008802A02D003E00020AC
:1002600010BD20F00100002900DA0020184310BD65
:1002700030B480EA010202F0004530F0004221F083
:10028000004013D090B1C30DD40DC2F31601C0F3DA
:100290001600E41A41F4000140F400027D3491425A
:1002A00001D3641C00E04900002C02DA30BC0020BD
:1002B00070474FF400000023914201D3891A034391
:1002C00040084FEA4101F7D151B1914202D14FF0BC
:1002D000004105E002D24FF0010101E06FF00101A1
:1002E00003EBC450284430BC00F0B4BA2DE9FE4FF3
:1002F000804681EA0300C00F0C46009021F00041C7
:1003000023F00045B8EB0200A94105D24046214642
:1003100090461C460B46024623F00040104347D04F
:10032000270DC7F30A00C3F30A510290401A019047
:1003300040286BDAC3F3130040F4801B0098924608
:1003400020B10023D2EB030A63EB0B0B0198594653
:10035000C0F14002504600F04CFA06460D465046A9
:100360005946019A00F064FA10EB0800614100243C
:1003700087EA115284EAE7731A4340D0009A62B3C5
:10038000019A012A4FEA075215DC001B61EB0201BA
:100390004FF0004202EA0752CDE90042001C41F54D
:1003A000801132462B4600F09BFA03B0BDE8F08F77
:1003B00040462146F9E7001B61EB0201001C41F5B4
:1003C000801300185B412018A2F5001747EB0301CA
:1003D00040EAD570B6196D4111E06D084FEA360656
:1003E00045EAC0754FEA0752001B61EB0201001C91
:1003F00041F5801149084FEA300000195141324659
:100400002B4603B0BDE8F04F00F05BBA0098012224
:1004100040000023D0EB020263EBE073009821461A
:100420004FEAE074B8EB000061EB0401E9E783F008
:1004300000435BE781F0004158E72DE9FE4F81EA78
:10044000030404F0004421F0004100944FF0000B3D
:1004500023F0004350EA01045ED052EA03045BD06B
:10046000C3F30A54C1F30A552C44A4F2F3340194A3
:10047000A0FB0254C1F3130141F48011C3F3130331
:1004800043F4801301FB024400FB034E840A970AE5
:1004900044EA815447EA8357A4FB076802958D0A12
:1004A00005FB07854FEA932C04FB0C542705029D9E
:1004B0004FEA065847EA1637B5EB08056EEB070C0E
:1004C000870E920E47EA811742EA8312A7FB0201C8
:1004D000B6EB0B0164EB00042B0D43EA0C335E1802
:1004E00044EB1C50DA465146E7FB0201C5F3130406
:1004F0004FEA0B3343EA14534FEA0432019C43EAB8
:100500000603A4F10C040294009CCDE900B400F0B1
:10051000E7F903B0BDE8F08F00200146F9E72DE9C7
:10052000F04D81EA030404F0004B21F0004514462D
:100530004FF0000A23F0004150EA050220D054EAAF
:1005400001021DD0C5F30A570246C5F31303C1F3D8
:100550001300C1F30A5640F4801543F48013A7EB4F
:100560000608101BD64608F2FD3873EB050002D3CF
:1005700008F1010801E092185B41B8F1000F03DABD
:1005800000200146BDE8F08D00204FF480110646A2
:1005900084460EE0171B73EB050705D3121B63EBB4
:1005A000050306434CEA010C49084FEA3000921853
:1005B0005B4150EA0107EDD152EA030012D082EA12
:1005C000040083EA0501084305D0101BAB4106D2A5
:1005D0000122002306E000224FF0004302E06FF00A
:1005E000010253101AEB06004CEB085110EB0A0005
:1005F00041EB0B01BDE8F04D00F063B9C10F80EA9B
:10060000E0700844CA079623002100F02CB9962315
:100610000022114600F027B90EB5C10F80EAE07044
:100620000844CA07002140F233438DE80E000A4611
:100630000B4600F055F903B000BD0EB540F2334152
:1006400002910021CDE900110A460B4600F048F95D
:1006500003B000BD00F0004220F00040C10DC0F327
:10066000160040F400007F2901DA00207047962927
:1006700003DCC1F19601C84001E096398840002AA8
:10068000F4D04042704720F00040C10DC0F3160086
:1006900040F400007F2901DA00207047962903DC2E
:1006A000C1F19601C840704796398840704700F004
:1006B000004230F000400AD0C10D01F56071C0F376
:1006C000160042EA0151C20840071143704700205A
:1006D0000146704730B5041E71F1000404DB4FF091
:1006E0000044404264EB0101141E73F1000405DB79
:1006F0001C464FF00043524263EB04038B4208BF99
:10070000824230BD01F0004330B421F0004150EA94
:10071000010206D00A0DA2F56072C1F31301002A8E
:1007200002DC30BC00207047440F44EAC104C10021
:10073000E01830BC00EBC25000F08CB8002801DBA0
:10074000C0F10040002901DBC1F100418142704746
:10075000002801DBC0F10040002901DBC1F10041AC
:100760008842704730B50B46014600202022012404
:1007700009E021FA02F59D4205D303FA02F5491B6F
:1007800004FA02F52844151EA2F10102F1DC30BD85
:100790002DE9F05F0546002092469B4688460646B6
:1007A000814640241BE0284641464746224600F049
:1007B0002FF853465A46C01A914110D31146184695
:1007C000224600F016F82D1A67EB01084F46224624
:1007D0000120002100F00DF817EB00094E41201E0A
:1007E000A4F10104DFDC484631462A464346BDE811
:1007F000F09F202A04DB203A00FA02F10020704723
:100800009140C2F1200320FA03F31943904070474E
:10081000202A04DB203A21FA02F00021704721FA55
:1008200002F3D040C2F120029140084319467047BC
:10083000202A06DBCB17203A41FA02F043EAE073A4
:1008400006E041FA02F3D040C2F120029140084391
:10085000194670470029A8BF7047401C490008BFCF
:1008600020F00100704710B4B0FA80FC00FA0CF0E0
:1008700050EA010404BF10BC704749B1CCF1200418
:1008800021FA04F411FA0CF118BF012121430843A5
:10089000A3EB0C01CB1D4FEA00614FEA102042BFD1
:1008A000002010BC704700EBC35010440029A4BFC7
:1008B00010BC7047401C490008BF20F0010010BC6C
:1008C000704710B5141E73F1000408DA401C41F1A2
:1008D000000192185B411A4301D120F0010010BDC4
:1008E0002DE9F04D92469B4611B1B1FA81F202E03A
:1008F000B0FA80F220329046FFF77BFF04460F46A5
:1009000040EA0A0041EA0B0153465A46084313D015
:10091000114653EA010019D0C8F140025046FFF7D2
:1009200077FF05460E46504659464246FFF761FF9F
:10093000084305D0012004E020463946BDE8F08D8B
:100940000020054346EAE0762C4337430A986305C6
:10095000E40AA0EB08000022FD0A44EA47540A30EA
:1009600002D500200146E9E7010510196941DDE9DA
:10097000084500196941BDE8F04DA2E770B521F0C6
:10098000004303430CD0C1F30A550024D5EB040502
:1009900064EB0403D617AD1AB34102DB0020014615
:1009A00070BD201841EB025170BDC1F30A52C1F372
:1009B000130140F2FF3341F480119A4202DA002021
:1009C0000146704740F233439A42A2F2334202DCBE
:1009D0005242FFF71DBFFFF70CBF000030B5041EE9
:1009E00071F1000404DB4FF00044404264EB01016C
:1009F000141E73F1000405DB1C464FF00043524205
:100A000063EB0403994208BF904230BD064C074D8A
:100A100006E0E06840F0010394E8070098471034CE
:100A2000AC42F6D3FFF766FB98410008B8410008D6
:100A300010B500220F21022002F0D4F801220F216C
:100A4000022002F0A1F910BD0448006800F0010086
:100A500010B10120014908607047000014040140F2
:100A60000448006800F0020010B10220014908604B
:100A7000704700001404014010B50F48006800F0F2
:100A80000400B8B10321002002F09AF850B10B48DD
:100A90000068401C0949086009480068401C084972
:100AA000086004E005480068401E0449086004200E
:100AB0000149086010BD000014040140100000202E
:100AC000180000200448006800F0080010B1082059
:100AD00001490860704700001404014010B50C483B
:100AE000006800F0100090B10521002002F068F8C5
:100AF00028B108480068401C0649086004E0054821
:100B00000068401E0349086010200149086010BDBC
:100B100014040140140000202DE9FF5F44480068E0
:100B200000F0200010B120204149086040480068D2
:100B300000F0400010B140203D4908603C4800688A
:100B400000F0800000285FD000F00AFA3948B0F9C0
:100B50000000FFF753FD0190FFF7A9FD82464FF01B
:100B60006632354BFFF7DBFC0646344A344BFFF761
:100B700064FCCDE9020133480068FFF798FD0446A4
:100B8000DDE90223FFF7B2FB8046FFF7BBFD2D49ED
:100B900008602D48B0F90000FFF73EFD82468B4605
:100BA0002A48B0F90000FFF729FD0390FFF77FFD09
:100BB000804652465B4601F035FD0646244A254BE9
:100BC000FFF73BFC0446FFF79DFD234908601948E9
:100BD000B0F90000FFF712FD8146FFF768FD0746F8
:100BE0004FF06632144BFFF79AFC0546FFF78AFD7B
:100BF0000446224618480168184800F0F9F81849D8
:100C0000086080200A4908600948006800F4807084
:100C100018B14FF48070064908600548006800F478
:100C2000007018B14FF4007001490860BDE8FF9FE3
:100C300014040140DE000020666630407B14AE479D
:100C4000E17A743FE8000020D4000020D6000020A4
:100C5000D9CEF753E3A54C40F40000207C000020DF
:100C60000001002010B500220F21022002F08CF8B4
:100C7000642001F0EFFD01220F21022002F084F830
:100C800010BD10B501220F21104602F07DF84FF47F
:100C9000967001F0DFFD00220F21012002F074F8B0
:100CA00010BD10B502220A21012001F09BFF022293
:100CB0000B21012001F096FF01220B21104602F0CA
:100CC00063F801220A21104602F05EF810BD10B54B
:100CD00001220B21104602F057F801220A2110468A
:100CE00002F052F800220A21012002F04DF810BD56
:100CF00070B5002501220B21104602F045F80024B2
:100D000012E001220A21104602F03EF80B210120D8
:100D100001F056FF10B180202041054300220A2136
:100D2000012002F031F8641C082CEADB284670BD73
:100D300070B50546002419E080202041284028B1E4
:100D400001220B21104602F01FF804E000220B21C3
:100D5000012002F019F801220A21104602F014F8CD
:100D600000220A21012002F00FF8641C082CE3DBAA
:100D700070BD10B501220B21104602F005F80122CA
:100D80000A21104602F000F800220B21012001F098
:100D9000FBFF00220A21012001F0F6FF10BD10B573
:100DA00000220B21012001F0EFFF01220A21104651
:100DB00001F0EAFF01220B21104601F0E5FF10BD12
:100DC00010B5002401220B21104601F0DDFF0122A5
:100DD0000A21104601F0D8FF0B21012001F0F0FE9E
:100DE000044600220A21012001F0CEFF204610BD5A
:100DF0002DE9F05F04460D4616463046E16AFFF7DE
:100E0000FFF98046E169FFF701FA0746A16AFFF79B
:100E1000A5F9A062E06AE062D4E90601FFF7F6F9FD
:100E20008246E169FFF7F2F98046D4E90401FFF751
:100E300095F98346E169FFF7E9F98246E168FFF732
:100E4000E2F981464146FFF789F907462168FFF735
:100E500085F9E060D4E90601FFF7D8F90746216972
:100E6000FFF7D1F92061D4E90601FFF7CFF9074672
:100E70006169FFF7C8F960616168A069FFF76EF901
:100E8000A061D4E90210FFF769F907463946E06826
:100E9000FFF7EEF92062D4E90210FFF75FF9074689
:100EA00039466069FFF7E4F960622846A16AFFF7F6
:100EB000A7F98046216AFFF7A9F90746A16AFFF75B
:100EC0004DF9A0622846A16AFFF79AF98046616A47
:100ED000FFF79CF90746E16AFFF740F9E0624FF03F
:100EE0007E50216AFFF78CF90746E168FFF78EF91B
:100EF000E0604FF07E50216AFFF782F907462169D2
:100F0000FFF784F92061616AE068FFF77FF907461F
:100F10006169FFF778F96061616A2069FFF776F926
:100F20000746A169FFF76FF9A061A06ABDE8F09FCD
:100F300010B501220C21104601F054FE01220D21B2
:100F4000104601F04FFE01220E21104601F04AFE2C
:100F500010BD10B500220F21012001F043FE10BD8D
:100F600070B53B2000F078F804463C2000F074F89F
:100F7000054645EA042000B2244908803D2000F0DF
:100F80006BF804463E2000F067F8054645EA042069
:100F900000B21F4908803F2000F05EF80446402060
:100FA00000F05AF8054645EA042000B219490880C5
:100FB000432000F051F80446442000F04DF8054667
:100FC00045EA042000B214490880452000F044F8A6
:100FD0000446462000F040F8054645EA042000B2E9
:100FE0000E490880472000F037F80446482000F0FA
:100FF00033F8054645EA042000B20949088008464E
:1010000000880D3800B2088070BD0000D4000020B8
:10101000D6000020D8000020DA000020DC000020EC
:10102000DE00002010B502216B2000F035F82721EA
:10103000192000F031F800211A2000F02DF81821B5
:101040001B2000F029F800211C2000F025F80121C8
:10105000382000F021F810BD70B50446FFF789FE76
:10106000D020FFF765FEFFF7ABFE2046FFF760FEDE
:10107000FFF7A6FEFFF793FEFFF77BFED120FFF7F9
:1010800057FEFFF79DFEFFF733FE0546FFF71FFEF5
:10109000FFF785FE284670BD70B505460C46FFF784
:1010A00068FED020FFF744FEFFF78AFE2846FFF7D0
:1010B0003FFEFFF785FE2046FFF73AFEFFF780FE72
:1010C000FFF76DFE70BD0000014607238B431A0237
:1010D000054B18684FF6FF0318401043034B1843A5
:1010E000014B1860704700000CED00E00000FA05AD
:1010F00070B505460C460420FFF7E6FF0E48005D7C
:1011000000F0010646EA0510C1B20B480155204621
:10111000E21704EBD2625211A4EB421301229A406F
:101120002146E31704EBD3635B119B0003F1E0233B
:10113000C3F8002170BD000000E400E070B5002499
:101140000EE00021204600F0C7F8002504E0002052
:1011500000F0E3F8681CC5B2802DF8DB601CC4B257
:10116000082CEEDB70BD10B502220D21012001F02C
:1011700039FD02220E21012001F034FD01220D2152
:10118000104601F001FE01220E21104601F0FCFD87
:1011900010BD70B50546002413E08020204100EA10
:1011A00005020E21012001F0EFFD01220D21104664
:1011B00001F0EAFD00220D21012001F0E5FD601C97
:1011C000C4B2082CE9DB01220D21104601F0DCFD40
:1011D00000220D21012001F0D7FD70BD10B50122C4
:1011E0000E21104601F0D0FD01220D21104601F024
:1011F000CBFD00220E21012001F0C6FD00220D21B1
:10120000012001F0C1FD10BD10B500220E2101200A
:1012100001F0BAFD01220D21104601F0B5FD0122B9
:101220000E21104601F0B0FD10BD70B5002406E09F
:10123000002500E06D1CB5F57A7FFBD3641CB4F586
:101240007A7FF5D3FFF78FFFAE2000F056F8D52058
:1012500000F053F8802000F050F8A82000F04DF87E
:101260003F2000F04AF8D32000F047F8002000F0BB
:1012700044F8402000F041F8A12000F03EF8C820DA
:1012800000F03BF8DA2000F038F8122000F035F8D2
:10129000812000F032F8CF2000F02FF8D92000F0A4
:1012A0002CF8F12000F029F8DB2000F026F830209F
:1012B00000F023F8A42000F020F8A62000F01DF88C
:1012C0008D2000F01AF8142000F017F8AF2000F07D
:1012D00014F8FFF733FF70BD70B505460C4645F0B6
:1012E000B00000F00AF8102141EA141000F005F8EF
:1012F00004F00F0000F001F870BD10B50446FFF7D0
:101300006DFF7820FFF745FF0020FFF742FF2046E2
:10131000FFF73FFFFFF778FF10BD10B50446FFF75A
:101320005DFF7820FFF735FF4020FFF732FF2046B2
:10133000FFF72FFFFFF768FF10BD10B500F002F8B0
:1013400010BD00000CB500200190009033480068EB
:1013500040F480303149086000BF3048006800F434
:10136000003000900198401C0190009818B9019835
:10137000B0F5A06FF1D12948006800F4003010B139
:101380000120009001E0002000900098012843D146
:101390002348006840F010002149086008460068B2
:1013A00020F0030008600846006840F00200086072
:1013B0001A4840681949486008464068486008462D
:1013C000406840F4806048600846406820F47C1023
:1013D00048600846406840F4E810486008460068E5
:1013E00040F08070086000BF0C48006800F000709A
:1013F0000028F9D00948406820F0030007494860F8
:101400000846406840F00200486000BF034840685A
:1014100000F00C000828F9D10CBD000000100240BB
:101420000020024010B51348006840F00100114947
:10143000086008464068104908400E494860084660
:1014400000680E4908400B4908600846006820F40F
:10145000802008600846406820F4FE0048604FF491
:101460001F008860FFF769FF4FF0006004490860C3
:1014700010BD0000001002400000FFF8FFFFF6FE64
:1014800008ED00E04FF08040008A00F0010038B124
:101490004FF08040008A20F001004FF08041088228
:1014A0007047000010B50848008800F0010048B1FE
:1014B0000648006801F07CFF0348008820F0010026
:1014C0000149088010BD00001004004024000020E5
:1014D0000548008800F0010028B10348008820F08A
:1014E000010001490880704710080040F8B501F07C
:1014F00009FA0446A04800780B287BD2DFE800F008
:1015000006233B5C7B9AB2DBFCFAF90000209B4986
:1015100008609B4908609B4800689B49086099489F
:1015200000689A49086001F08BFE0120924908701A
:1015300096480068FFF7BBF805462A460B4694A07C
:1015400000F038FA15E100208C49086096208C499B
:101550000860002040F6282301225A210090974875
:1015600002F0C8F901F06CFE02208349087094A0D3
:1015700000F020FAFDE000208049086096208049B4
:10158000086095492046FFF7E3F802D901F086F993
:1015900088B101F055FE0320774908708E49204636
:1015A000FFF7D6F801D88DA000E08FA005462946A8
:1015B00091A000F0FFF9DCE0002070490860822073
:1015C0006F490860002040F6282301225A2100902C
:1015D000954802F08FF901F033FE01206749086059
:1015E0008220674908600420634908708FA000F0DA
:1015F000E1F9BEE0B6E00120604908608220604960
:10160000086091492046FFF7A3F812D88F4A5F4837
:1016100001685C48006800F0BBFE50B101F010FEAC
:1016200000205649086005205349087088A000F042
:10163000C1F99EE000205149086096205049086099
:10164000002040F6282301225A2100908D4802F004
:1016500051F901F0F5FD0620474908708AA000F015
:10166000A9F986E0002045490860962044490860B1
:101670008B492046FEF772FD05465749FFF768F88B
:1016800002D901F00BF9A8B101F0DAFD07203A49BF
:10169000087083492046FEF761FD06464E49FFF774
:1016A00057F801D84DA000E04FA0054629467DA07F
:1016B00000F080F95DE00020304908608220304968
:1016C0000860002040F6282301225A21009081481A
:1016D00002F010F901F0B4FD0120284908608220D1
:1016E000274908600820244908707BA000F062F9AF
:1016F0003FE038E01CE0FFE701202049086082203D
:101700001F49086050492046FFF722F80FD84F4A7A
:101710001E4801681B48006800F03AFE38B101F02D
:101720008FFD09201449087072A000F043F920E0F1
:10173000002012490860124908600021084601F0A3
:101740004DFD002001F0F0FC002001F009FD4FF4F8
:10175000FA7001F07FF80A200749087072A000F0C3
:1017600029F906E000BF0020044908600449086028
:1017700000BF00BFF8BD00000400002028000020CA
:10178000240000200001002020000020080000208C
:101790005B54325D20494E4954202D3E2054555211
:1017A0004E5F41432C20E5889DE5A78BE8A792E595
:1017B000BAA63D252E32660D0A00000000000CC2BC
:1017C0005B54325D205455524E5F4143202D3E20E4
:1017D000474F5F430D0A00000000CA4264697374FA
:1017E000616E636500000000747261636B20646564
:1017F00074656374656400005B54325D20526561FA
:10180000636820432C20474F5F43202D3E20414CEE
:1018100049474E5F43422028747269676765723A90
:10182000202573290D0A0000000034425B54325D0C
:1018300020414C49474E5F4342202D3E20545241A7
:10184000434B5F43420D0A000000A4420000C04029
:101850005B54325D20526561636820422C20E8A70A
:1018600092E5BAA6E5AFB9E9BD902C2054524143A8
:101870004B5F4342202D3E205455524E5F42440D53
:101880000A00000000005C425B54325D2054555257
:101890004E5F4244202D3E20474F5F440D0A00001A
:1018A000000020415B54325D205265616368204432
:1018B0002C20474F5F44202D3E20414C49474E5F2E
:1018C00044412028747269676765723A202573293C
:1018D0000D0A0000000070C25B54325D20414C498B
:1018E000474E5F4441202D3E20545241434B5F44BC
:1018F000410D0A005B54325D2052656163682041EE
:101900002C20E8A792E5BAA6E5AFB9E9BD902C2056
:10191000545241434B5F4441202D3E2046494E499D
:1019200053480D0A000000005B54325D2046494ECA
:10193000495348202D3E2049444C450D0A000000E3
:1019400010B50848008800F0200050B1002002F0D7
:10195000B9FA054908600348008820F020000149D1
:10196000088010BD003801400000002010B5094873
:10197000008800F0200058B1012002F0A3FA0446CC
:1019800000F010FF0348008820F020000149088083
:1019900010BD0000004400400548008800F0200011
:1019A00028B10348008820F02000014908807047D2
:1019B000004800400FB4054B10B503A9044A029833
:1019C00000F040F910BC5DF814FB0000A52B0008E6
:1019D000D0000020490050EAC12018BF04204A0D61
:1019E00018BF40F0010040F2FF72B2EB515F08BF38
:1019F00040F00200012808BF052070472DE9F041A2
:101A00004F1E00EBC7010446D1E9000115461E46F2
:101A100037F006020DD02A463346FEF70EFD7F1E34
:101A200004EBC703D3E90023FEF760FC37F006029E
:101A3000F1D1022F25D0042F13D0062F18BFBDE8F7
:101A4000F0812A463346FEF7F8FCD4E90A23FEF774
:101A50004DFC2A463346FEF7F0FCD4E90823FEF796
:101A600045FC2A463346FEF7E8FCD4E90623FEF798
:101A70003DFC2A463346FEF7E0FCD4E90423FEF79A
:101A800035FC2A463346FEF7D8FCD4E90223FEF79C
:101A90002DFC2A463346FEF7D0FCD4E90023BDE8EE
:101AA000F041FEF723BC0122FEF768BFFEF71EBC23
:101AB000024A00201107FEF761BF000001FDFFFF91
:101AC00002E008C8121F08C1002AFAD17047704707
:101AD000002001E001C1121F002AFBD17047000065
:101AE0002DE9FF5FDDE90220010DDDF838B002438A
:101AF00018D044F61050A1F2FF3141430D140F9855
:101B0000012820D0A5EB0B00401C5FEA000A4FF033
:101B10000004474EDFF81C91A046504616D5CAF186
:101B2000000728E00F98012443A2012808D00021D3
:101B300000980F9BC0E90021C0E90243BDE8FF9F68
:101B40006FEA0B01F4E7CBF10000DEE7074612E095
:101B5000F80707D02246334640464946FEF76DFC5B
:101B6000804689462246334610461946FEF765FCF4
:101B700004460E467F10002FEAD1DDE90201BAF1DA
:101B8000000F42464B4602DAFEF757FC01E0FEF733
:101B9000C6FC04460E460022284BFEF71FFF03D862
:101BA0004FF0FF30014607E00022254B204631462A
:101BB000FEF79CFBFEF7F9FE102409E0002C0ADB7F
:101BC0000A220023FEF7E4FD019B30321A55641E01
:101BD00050EA0102F2D1641C019AC4F111031444C9
:101BE0000F9A012A03D0012208430DD10AE00843CD
:101BF00004D000204FF0110B0F9080E7A3EB0B05F2
:101C00006D1E0DE05B4504DD4FF0000205F101059E
:101C100004E003DA4FF00002A5F10105002AECD040
:101C200000980F99C0E90231C0E9004586E700003D
:101C3000000024400000F03F300000000000F043AE
:101C40000000E03F2DE9FF4F95B09B4689460646D0
:101C500000250FE2252877D100242746F84A0121E4
:101C6000059400E0044316F8013F203B01FA03F01D
:101C70001042F7D130782A2811D06FF02F03307836
:101C8000A0F13002092A16D8059A44F0020402EBAA
:101C9000820203EB42021044761C0590EFE759F8EC
:101CA000042B0592002A03DA504244F400540590B4
:101CB00044F00204761C30782E2816D116F8010F55
:101CC00044F004042A280DD06FF02F023078A0F1E0
:101CD0003003092B09D807EB870302EB4303C7182E
:101CE000761CF3E759F8047B761C30786C280FD00B
:101CF00006DC4C2817D068280DD06A2814D104E0DF
:101D0000742810D07A280FD10DE044F400140AE0B2
:101D100044F4801401E044F440147278824202D109
:101D200004F58014761C761C307866280BD013DC02
:101D3000582877D009DC002875D04528F6D04628E9
:101D4000F4D047281AD19DE118E0632835D06428E3
:101D500079D0652812D195E1702873D008DC672806
:101D6000F1D069286FD06E280DD06F2806D1B5E06C
:101D700073282CD0752875D0782874D05A461799B6
:101D800090476D1C75E1C4F30250022809D0032866
:101D90000DD0D9F8001004280DD00D6009F1040908
:101DA00067E1D9F80010EA17C1E90052F6E7D9F85F
:101DB00000100D80F2E70D70F0E719F8041B8DF8A4
:101DC000001000208DF80100EA46012003E059F8D8
:101DD00004AB4FF0FF3061074FF0000102D40DE07B
:101DE00008F101018846B9420FDA8045F8DB1AF89C
:101DF00008100029F4D108E008F101018846814269
:101E0000FADB1AF808100029F6D105985B46A0EB1A
:101E1000080721463846179A00F094FA284400EB48
:101E2000080507E04DE029E10DE01AF8010B5A46DC
:101E300017999047B8F10108F7D25B46214638461A
:101E4000179A13E142E00A220092C4F302524FF0C3
:101E5000000A022A08D059F804CB032A4FEAEC7191
:101E60000AD00DE029E02AE009F1070121F007027C
:101E7000F2E802C1914609E00FFA8CFC4FEAEC71DE
:101E8000042A03D14FFA8CFC4FEAEC71002907DADF
:101E90000A460021DCF1000C61EB02012D2202E078
:101EA000220504D52B228DF80420012203E0E2074D
:101EB00001D02022F7E7904659E00A2102E01022E3
:101EC0000DE010214FF0000A00910BE010224FF0BE
:101ED000000A44F004040827009203E008224FF0AF
:101EE000000A0092C4F30252022A05D059F804CB2A
:101EF0000021032A08D009E009F1070121F00702B7
:101F0000F2E802C1914605E01FFA8CFC042A01D1D7
:101F10000CF0FF0C4FF00008220728D5702806D0DF
:101F2000009B83F0100353EA0A0305D00EE0402221
:101F30008DF80420012208E05CEA010206D030227C
:101F40008DF804208DF8050002229046009B83F056
:101F5000080353EA0A030AD15CEA010201D16207CD
:101F600005D530228DF804204FF001087F1E582837
:101F700004D034A003900EA802900DE036A0F9E73B
:101F800053466046009AFEF703FC84460398825C41
:101F90000298401E029002705CEA0100F0D10298A3
:101FA00006A9081A00F1200A600702D524F480343B
:101FB00000E00127574502DDA7EB0A0000E0002002
:101FC00000EB0A01009005984144401A0590E00397
:101FD00006D45B462146179A059800F0B3F90544EC
:101FE000002706E001A85A46C05D179990476D1C6E
:101FF0007F1C4745F6DBE0030CD55B462146179A6C
:10200000059800F09FF9054404E030205A461799DE
:1020100090476D1C0099481E00900029F5DC08E0EF
:10202000029802995A460078491C029117999047E4
:102030006D1CBAF10001AAF1010AF1DC65E10000B2
:10204000092801003031323334353637383961628E
:102050006364656600000000303132333435363752
:1020600038394142434445460000000000F058F929
:102070000544761C307800287FF4ECAD19B0284672
:10208000BDE8F08F620700D4062709F1070222F0AD
:10209000070CFCE80223E14603F000485FEA080C65
:1020A00002D00FF2702C0DE05FEA045C02D50FF253
:1020B000682C07E05FEAC47C02D00FF2602C01E0DC
:1020C000AFF2700C4FF0FF3823F00043CDF850C052
:1020D00065280CD006DC452809D046281DD04728A5
:1020E0003DD13DE0662818D067287ED138E0002138
:1020F000112F01DB112000E0781CCDE9000106A9B9
:102100000EA8FFF7EDFCDDE90F010E9A0391002107
:10211000009207F1010A04914DE04FF00040009752
:10212000CDE9011006A90EA8FFF7DAFCDDE90F02E0
:1021300003920E9B11990022DDF80CA000930492EB
:1021400011B9791C00EB010AB7EB0A0004D4C0F105
:10215000FF3007F1010A0490AAEB0700019044E068
:10216000012F00DA01270021112F01DD112000E0ED
:102170003846CDE9000106A90EA8FFF7B1FCDDE95C
:102180000F010E9A0391002104910092BA46210793
:102190000CD40399514500DA8A46BAF1010F05DDE6
:1021A000009AAAF10101515C302908D0B84202DA44
:1021B00010F1040F06DA0121CDE9011015E0AAF1B2
:1021C0000101E9E7002805DC049901440491AAEB28
:1021D000000102E0411C514500DD8A460499401A85
:1021E000401C01904FF000400290200704D4019859
:1021F000504501DBCDF8048000208DF84F00029897
:102200000DF14F07B0F1004F25D02B200E90029812
:102210004FF0020800280CDA404202902D200E9068
:1022200007E00A210298FEF79DFA3031029007F884
:10223000011DB8F10001A8F10108F2DC02980028A4
:10224000EFD1791E0E980870307800F0200040F031
:10225000450007F8020D12A8C01B00F107081498EA
:10226000007800B1012000EB0A01019801EBE07158
:1022700005984144401A401E0590E00306D45B4691
:102280002146179A059800F05DF8054414980078E7
:1022900018B15A46179990476D1CE00324D55B4648
:1022A0002146179A059800F04DF805441CE0049863
:1022B000002807DBDDE90301884203DD0098405C6C
:1022C000179901E0179930205A469047049805F174
:1022D0000105401C04900198401E019004D12E205D
:1022E0005A46179990476D1CBAF10001AAF1010AEC
:1022F000DDDC05E017F8010B5A46179990476D1C75
:10230000B8F10001A8F10108F4DC5B462146179AF8
:102310000598ABE62D0000002B0000002000000017
:102320002DE9F041044600251E461746880404D4D2
:1023300005E039462020B0476D1C641EF9D52846BB
:10234000BDE8F0812DE9F041044600251E46904687
:10235000C80301D5302700E02027880404D505E014
:1023600041463846B0476D1C641EF9D52846BDE885
:10237000F081000003480078022801D1024870472C
:102380000248FCE7620000200F4000080A400008F5
:102390002DE9F05F81468A46144651464846FDF7CE
:1023A0002FFF834614495846FEF7D2F904D2134949
:1023B0005846FDF725FF834611495846FEF7BEF9FA
:1023C00004D20E495846FDF7C9FE83462046FEF763
:1023D0006EF905460E465846FEF769F921F00041B0
:1023E00007462A463346FEF775F902D20120BDE8BA
:1023F000F09F0020FBE70000000034430000B443DE
:10240000000034C32DE9F84F04460D4621F000408A
:1024100000917349814211DC7249884201DC06D186
:102420002CB120462946BDE8F84FFFF73CBB6E486B
:10243000002DCCBF6D496E49BDE8F88F6D498142D2
:1024400011DD6D498142D8BF4FF0FF366DDD20466A
:102450002946FFF7BFFA042808BFFFF729FB2046EB
:102460002946BDE8F88F6549654F25F00045814252
:1024700033DD6449814219DD002632464FF0804346
:1024800020462946FDF732FF80468A460122204633
:102490002946FEF773FA00223B46FDF7C8FF424685
:1024A0005346FEF73CF804460D463EE00126002266
:1024B000BA463B4620462946FDF718FF80460F46A0
:1024C0000022534620462946FDF7B1FF42463B46CF
:1024D000FEF725F804460D4627E04B4981421BDDF7
:1024E000DFF828A102260022534620462946FDF7A0
:1024F000A4FF00223B46FDF7F9FE80460F4600226E
:10250000534620462946FDF792FF42463B46FEF7DA
:1025100006F804460D4608E0032622462B46002016
:102520003B49FDF7FCFF04460D4622462B4610466C
:102530001946FDF782FF8B46824602460B46FDF7A1
:102540007CFF07460246334888460B4606217844FE
:10255000FFF754FA52465B46FDF76FFF82462E485E
:102560008B463A46434605217844FFF747FA3A46F8
:102570004346FDF762FF02460B46002E5046594681
:102580000CDAFDF7B3FE22462B46FDF756FF01B0ED
:1025900022462B46BDE8F04FFDF74CBFFDF7A6FEE7
:1025A00022462B46FDF749FF1C4A7A4402EBC6033C
:1025B000D3E90023FDF73BFF22462B46FDF737FF0B
:1025C000174A7A4402EBC603D3E90023FDF732FF32
:1025D000009A002AB8BF81F00041BDE8F88F0000E2
:1025E000000010440000F07F182D4454FB21F93FF7
:1025F000FB21F9BF0000DC3F0000203E0000F33F5C
:102600000000F03F0000E63F008003400000F83F7C
:102610000000F0BF2E1B0000EC1A00008A1A000018
:10262000521A00002DE9F04D9446CCF1000423F03D
:1026300000464CEA0404524F46EAD4749A4688464F
:1026400021F00042BC4206D8454240EA050442EA75
:10265000D474BC4204D9BDE8F04D6246FFF726BAF7
:10266000AAF14055A5F17F6555EA0C040BD0022470
:1026700004EAAA74434DDFF810E144EAD87452EA40
:10268000000B04D00CE0BDE8F04DFFF7BBBE002C02
:1026900014BF012CBDE8F08D022C30D0032C32D0B9
:1026A00056EA0C0B0AD0BE4220D1BA4209D126F01C
:1026B000804622F080423346114617E000291ADB9B
:1026C00025E0DFF8C8B0FB44002C04BFDBE90001C3
:1026D000BDE8F08D012C02BFDBE9000181F0004173
:1026E000BDE8F08D022C0AD0032C0CD0BA4212D1D6
:1026F000B8F1000F0BDA23482549BDE8F08D2846D4
:102700002449BDE8F08D28467146BDE8F08D1D488E
:102710002149BDE8F08D921B12153C2AC4BF19480F
:102720001D490EDCBAF1000FBEBF12F13C0F0020B4
:10273000014606DB6246FDF7F2FE21F00041FFF79D
:1027400061FE002C08BFBDE8F08D012C04BF81F0B4
:102750000041BDE8F08D114A114B022C07D0FDF766
:1027600066FE2A46BDE8F04D0A4BFDF760BEFDF758
:102770005EFE2A46BDE8F04D064BFDF75BBE00004D
:102780000000F07F182D4454FB2109C0E619000019
:10279000FB21F9BFFB210940FB21F93F075C143302
:1027A00026A6A13C10B504460D2C00D110BD0A2C64
:1027B0000BD100200E490F4A12788854084601F0C8
:1027C000E8FB00200B490870F0E70A48007827284A
:1027D00008D2084801780078401C064A1070044866
:1027E000445402E000200349087000BFDEE7000007
:1027F000A00100206700002010B51148007810B13A
:102800001048007800B110BD002413E00E4800EB22
:10281000C400007960B90C4850F834100B480068C7
:10282000FDF796FF04D80120074901EBC4010871A8
:10283000601CC4B2064800788442E7DB00BFE2E7D0
:102840003900002038000020400000203000002027
:102850006000002000B5034603E04FF47A7000F0FA
:1028600005F81800A3F10103F7D100BD00EBC0018A
:10287000C9004FF0E02251610021916105211161F1
:1028800000BF4FF0E021096901F480310029F8D040
:1028900004214FF0E02211617047000010B572B6BC
:1028A00000F038FB0F480078A0B90F48007888B9CD
:1028B0000E48007870B90E48007858B90D48007875
:1028C00040B90D48007828B90C48007810B90C4878
:1028D000007808B1012000E00020044662B62046DE
:1028E00010BD00006C0000206D0000206E00002074
:1028F0006F00002070000020710000207200002096
:102900007300002072B60249086862B67047000082
:102910003000002010B500220121062000F010F840
:1029200001220321002000F05DF9002201210C208A
:1029300000F006F801220521002000F053F910BD37
:102940002DE9F04704460E461746032194FBF1F0AB
:10295000C11700EB91718910A0EB810189064FEA44
:102960001168032194FBF1F0C11700EB9171C1F3E1
:102970008705204600F06AF83148806940F0010080
:102980002F4988614FEAB13050F825000F2101FA34
:1029900008F188432B4941F82500032094FBF0F10E
:1029A00000FB114088B1032094FBF0F100FB1140C3
:1029B000401E012101FA00F000FA08F0214951F807
:1029C000251001431F4840F82510032094FBF0F127
:1029D000012088401C49096808431B49086066B902
:1029E000032094FBF0F10120884017490831096861
:1029F00008431549083108600BE0032094FBF0F10F
:102A00000120884010490C31096808430E490C31F7
:102A10000860032094FBF0F004280ADC032094FBF8
:102A2000F0F0801D00F0FF0949463846FEF760FBD4
:102A300003E017213846FEF75BFBBDE8F087000096
:102A400000100240080001400004014010B5044697
:102A5000192C13D2DFE804F00D13191F252B313781
:102A60003D43494F555B61676D73797F858B9197C6
:102A70009D0001220021084600F0B4F88FE00122F9
:102A80000021104600F0AEF889E00122002102206A
:102A900000F0A8F883E001221146002000F0A2F81F
:102AA0007DE001221146104600F09CF877E00122FB
:102AB0001146022000F096F871E001220221002068
:102AC00000F090F86BE001220221104600F08AF835
:102AD00065E001220221084600F084F85FE001224F
:102AE0000321002000F07EF859E001220321104666
:102AF00000F078F853E001220321022000F072F880
:102B00004DE001220421002000F06CF847E0012292
:102B10000421104600F066F841E001220421022061
:102B200000F060F83BE001220521002000F05AF897
:102B300035E001220521104600F054F82FE0012273
:102B40000521022000F04EF829E001220621002094
:102B500000F048F823E001220621104600F042F878
:102B60001DE001220621022000F03CF817E00122BE
:102B70000721002000F036F811E00122072110465D
:102B800000F030F80BE001220721022000F02AF8C3
:102B900005E001220921104600F024F800BF00BF23
:102BA00010BD000000BF054A128802F04002002A52
:102BB000F9D0C2B2014B1B1D1A807047003801408A
:102BC00010B50246064850F82200806801248C4067
:102BD00000EA04030BB1012010BD0020FCE7000057
:102BE000AC00002070B5654CA469042585402C43D9
:102BF000624DAC6108295DDA614C54F820402468CC
:102C00008E000F25B540AC435D4D55F820502C602B
:102C10001AB1032A01D0022A0FD10124944044F0B2
:102C200003048D00AC40564D55F820502D682C43C0
:102C3000534D55F820502C609FE0012A01D0042A02
:102C40002AD14F4C54F8204024688E000825B54006
:102C50002C434B4D55F820502C60012A0ED1484C86
:102C600054F82040E46801258D4024EA050301243E
:102C70008C401C43424D55F82050EC60042A7CD116
:102C80003F4C54F82040E56801248C40A5433C4C5F
:102C900054F82040E56070E0042494408D00AC407E
:102CA000374D55F820502D682C43354D55F82050A0
:102CB0002C6062E0324C54F820406468A1F10805B1
:102CC000AE000F25B540AC432D4D55F820506C603B
:102CD0001AB1032A01D0022A11D10124944044F0F0
:102CE0000304A1F10805AD00AC40254D55F8205076
:102CF0006D682C43224D55F820506C603DE0012A50
:102D000001D0042A2AD11E4C54F820406468A1F155
:102D10000805AE000825B5402C43194D55F8205044
:102D20006C60012A0CD1174C256801248C4025EADF
:102D3000040301248C401C43114D55F82050EC60D5
:102D4000042A1AD10E4C54F82040E46801258D4025
:102D5000AC430B4D55F82050EC600EE00424944039
:102D6000A1F10805AD00AC40054D55F820506D6847
:102D70002C43034D55F820506C6070BD001002408C
:102D8000AC0000200C08014030B57AB10D4C54F86D
:102D90002040E46801258D4024EA050301248C408D
:102DA0001C43084D55F82050EC600AE0054C54F8DF
:102DB0002040E46801258D40AC43024D55F8205079
:102DC000EC6030BDAC00002010B50446092C76D272
:102DD000DFE804F0860515253545556576000022A7
:102DE00006210120FFF7D0FF002208210120FFF774
:102DF000CBFF002205210120FFF7C6FF71E0002272
:102E000006210120FFF7C0FF002208210120FFF763
:102E1000BBFF012205211046FFF7B6FF61E000224B
:102E200006210120FFF7B0FF012208211046FFF71D
:102E3000ABFF002205210120FFF7A6FF51E0002291
:102E400006210120FFF7A0FF012208211046FFF70D
:102E50009BFF012205211046FFF796FF41E001226A
:102E600006211046FFF790FF002208210120FFF7FE
:102E70008BFF002205210120FFF786FF31E00122B0
:102E800006211046FFF780FF002208210120FFF7EE
:102E90007BFF012205211046FFF776FF21E001228A
:102EA00006211046FFF770FF012208211046FFF7A8
:102EB0006BFF002205210120FFF766FF11E00FE004
:102EC000012206211046FFF75FFF0122082110466C
:102ED000FFF75AFF012205211046FFF755FF00E0DA
:102EE00000BF00BF10BD10B5002205210120FFF773
:102EF00079FE002208210120FFF774FE002206213E
:102F00000120FFF76FFE01220F210020FFF76AFE6C
:102F100010BD000010B50120FFF756FF0F21002063
:102F2000FFF74EFE08B1012000E000202E49087096
:102F30000220FFF749FF0F210020FFF741FE08B1F3
:102F4000012000E00020294908700320FFF73CFF22
:102F50000F210020FFF734FE08B1012000E000201F
:102F6000234908700420FFF72FFF0F210020FFF7EF
:102F700027FE08B1012000E000201E49087005204E
:102F8000FFF722FF0F210020FFF71AFE08B10120F2
:102F900000E00020184908700620FFF715FF0F21F8
:102FA0000020FFF70DFE08B1012000E000201349CA
:102FB00008700720FFF708FF0F210020FFF700FE31
:102FC00008B1012000E000200D4908700820FFF73B
:102FD000FBFE0F210020FFF7F3FD08B1012000E008
:102FE00000200849087010BD6C0000206D00002012
:102FF0006E0000206F000020700000207100002093
:10300000720000207300002008B5FDF711FDFEF7E7
:103010000CF900F0C1F8FFF77DFCFDF789FFFDF723
:1030200098FF00224FF4E131104600F055FFFFF702
:103030005AFFFDF736FEFDF7F5FF23480023234A2C
:1030400001210090224800F0A1FA1F4800231F4AE6
:10305000012100901F4800F099FA1F4800238207C1
:10306000194600901D4800F091FA002211461620E2
:10307000FFF766FC00220A21012000F0D9FD0020A4
:103080001749086017490860174800681749086021
:1030900000201749086001201649087000201649D1
:1030A000087016481649086016481749086000F06D
:1030B000C7F816A0FEF77EFC04E0FEF717FA0A2018
:1030C000FFF7C8FBF9E700000000A0400000C8427D
:1030D0000401002038010020CDCCCC3D6C01002043
:1030E0002800002024000020E8000020200000200C
:1030F00030000020390000203800002000401C462D
:1031000034000020C0EC9E3D3C0000205B54325D4A
:1031100020537461727420382D726F757465204667
:10312000534D0D0A0000000010B50446A2B2002164
:10313000084600F055FB0948027806210020FFF7F9
:1031400023FE0648007808B9012000E0002002466E
:1031500007210020FFF718FE10BD00000C00002022
:1031600010B50446A2B20121002000F039FB094845
:10317000027800210120FFF707FE0648007808B911
:10318000012000E00020024601210846FFF7FCFD77
:1031900010BD00000D00002010B54FF47A72002120
:1031A000084600F00FFA002206211046FFF71AFD2C
:1031B000002207211046FFF715FD4FF47A72012116
:1031C000002000F0FFF9002211460120FFF70AFD60
:1031D000002201210846FFF705FD10BD70B5054628
:1031E0000C46002D08DB0120114908702846FDF728
:1031F00005FA1049086007E000200D490870684290
:10320000FDF7FCF90B490860002C08DB01200A4996
:1032100008702046FDF7F2F90849086007E0002031
:10322000054908706042FDF7E9F90449086070BD7E
:103230000C000020040100200D00002038010020B7
:1032400010B5FDF70FFDFDF71CFD72B60020034918
:1032500008600349087062B610BD0000300000200D
:103260003800002010B504460CB9002010BD13A191
:103270002046FCF757FF20B912A12046FCF752FF69
:1032800008B10120F2E711A12046FCF74BFF20B95D
:1032900010A12046FCF746FF08B10220E6E70FA187
:1032A0002046FCF73FFF20B90EA12046FCF73AFF6D
:1032B00008B10320DAE70020D8E700005343495360
:1032C000530000004A49414E0000000048414D4D66
:1032D0004552000043485549000000004C4947480A
:1032E00054000000444148554F0000002DE9F041D2
:1032F0000446D4E90001FCF783FFA060206B01289D
:103300002DD1D4E90201FCF77BFF05466169FCF78A
:103310007DFF2062A168A069FCF778FFA0624FF0F2
:103320008040E168FCF772FF0746A168FCF76BFF7D
:1033300006462169FCF712FF0546E169FCF766FFC6
:103340006062A16A206AFCF709FF0646616AFCF721
:1033500005FF0546E16AFCF701FFE06221E0206B12
:10336000F8B9A1686069FCF751FF2062A168A06903
:10337000FCF74CFF0546A16AFCF7F0FEA062D4E919
:103380000201FCF73DFF0546E169FCF73FFF606283
:10339000A16A206AFCF7E2FE0546616AFCF7DEFEE0
:1033A000E062E1682161A168E160BDE8F0810000B0
:1033B0002DE9F04104466548007878B900210846B7
:1033C000FFF70CFF00206249C8626249C862FFF73C
:1033D000ABFE0020FFF7C4FEBDE8F08174B9002108
:1033E0000846FFF7FBFE00205949C8625949C862E8
:1033F000FFF79AFE0020FFF7B3FEEDE7564800689E
:10340000564908605648006848600846FFF76EFF56
:103410002046FDF7F3F880465048C16A4046FCF765
:103420009DFE0746FDF716F905462046FDF7E6F82E
:1034300080464A48C16A4046FCF7E2FE0746FDF76F
:1034400009F906462946FFF7C9FE464800680128E3
:1034500003D1FFF75FFD00F023FC4348007830B153
:1034600042480068FDF7CAF83949486006E03F481D
:1034700000684042FDF7C2F8354948603C48007892
:1034800030B13C480068FDF7B9F83249486006E0C1
:10349000384800684042FDF7B1F82E494860364888
:1034A000007890BB01203549087032480068FDF76C
:1034B000A5F820F000472D480068FDF79FF820F0A0
:1034C000004839464046FCF749FE06464FF0804129
:1034D000FCF7CEFE05462A4801682846FCF796FE12
:1034E0000646284801683046FCF738FE2549086042
:1034F0002548016823480068FDF72AF902D8012011
:103500001D490870FFF778F900BF002017490860CF
:10351000184908600E48FFF7E9FE0E48FFF7E6FE7F
:103520000B4800F03BF80B4800F038F80849C86A2F
:10353000FDF790F80546FFF7F7FD0649C86AFDF765
:1035400089F80546FFF70CFE00BF45E72C00002078
:103550000401002038010020200000206C01002020
:10356000E8000020280000200C00002010000020AF
:103570000D00002014000020380000203900002039
:103580003C000020300000203400002010B5029CD8
:10359000016342618361C46110BD000010B504463F
:1035A0000749E06AFDF7D4F801D80548E062002138
:1035B000E06AFDF7C3F801D80020E06210BD00000A
:1035C000005043472DE9F04104460D461646284673
:1035D000E91705EB91718910A5EB8101491CCFB268
:1035E0005148C0690121A14008434F49C8614F4873
:1035F00090FBF6F0401E4E4951F824108885472074
:103600004B4951F824100885284600F093F8012F03
:1036100006D0022F1ED0032F36D0042F69D14DE0E3
:10362000434850F82400008B40F06000404951F8B6
:10363000241008833E4850F82400008B40F0080016
:103640003B4951F8241008830020394951F82410CF
:1036500088864EE0364850F82400008B40F4C04085
:10366000334951F824100883314850F82400008B66
:1036700040F400602E4951F82410088300202C49A2
:1036800051F82410088734E0294850F82400808B32
:1036900040F06000264951F824108883244850F8EF
:1036A0002400808B40F00800214951F824108883C1
:1036B00000201F4951F8241088871AE01C4850F850
:1036C0002400808B40F4C040194951F824108883AD
:1036D000174850F82400808B40F40060144951F8DA
:1036E000241088830020124951F82410A1F84000CA
:1036F00000BF00BF0E4850F82400008C791E8A00DD
:103700000121914008430A4951F8241008840848CF
:1037100050F82400008840F08100054951F8241039
:103720000880BDE8F08100000010024040420F0018
:10373000B800002010B504460C2C4FD2DFE804F08E
:10374000060C12181E242A30363C4248032200215F
:103750000846FFF747FA41E0032201210020FFF766
:1037600041FA3BE0032202210020FFF73BFA35E05B
:10377000032211460020FFF735FA2FE0032206212D
:103780000020FFF72FFA29E0032207210020FFF78E
:1037900029FA23E0032200210120FFF723FA1DE08C
:1037A000032201210846FFF71DFA17E00322062134
:1037B0000120FFF717FA11E0032207210120FFF78C
:1037C00011FA0BE0032208210120FFF70BFA05E0B4
:1037D000032209210120FFF705FA00BF00BF10BD39
:1037E0002DE9F84F04460D4617462846E91705EB24
:1037F00091718910A5EB8101491C01F0FF084CF281
:103800005030874200DB0746384850F82400868D48
:10381000B8F1010F09D0B8F1020F1DD0B8F1030FB4
:1038200031D0B8F1040F5DD144E0701CFCF7E6FE26
:1038300083463846FCF7EBFE2D490090FCF718FD57
:1038400082465946FCF7E2FC8146FCF71CFF2749FB
:1038500051F82410888645E0701CFCF7CFFE0090DC
:103860003846FCF7D4FE83462149FCF701FD824629
:103870000099FCF7CBFC8146FCF705FF1B4951F88A
:10388000241008872EE0701CFCF7B8FE0090384624
:10389000FCF7BDFE83461649FCF7EAFC8246009918
:1038A000FCF7B4FC8146FCF7EEFE104951F82410F9
:1038B000888717E0701CFCF7A1FE00903846FCF7E3
:1038C000A6FE83460A49FCF7D3FC82460099FCF722
:1038D0009DFC8146FCF7D7FE044951F82410A1F85D
:1038E000400000BF00BFBDE8F88F0000B800002016
:1038F000005043472DE9F04F8DB083460D4690466A
:103900001E460024002700200C906E48D0F800903E
:1039100049465846FCF722FC6B4908606B48056035
:103920005846FCF7C4FECDE90A0167480068FCF779
:10393000BEFECDE908014846FCF7B9FE0495CDE985
:103940000601DDE90A01CDE90201DDE90801CDE961
:1039500000015F48DDE90623FEF72CF8B8F1000FFF
:1039600006D15CA0FEF726F801200DB0BDE8F08F6F
:103970000A20B6FBF0F707B901277EE00020614975
:1039800008605048016850480068FCF739FC09900D
:10399000FCF78DFE21F00041CDE90A01FCF7B2FEF3
:1039A00082464FF080415046FCF7C8FE24D20120E9
:1039B0000C905046FCF77BFECDE90A0142480068B6
:1039C000FCF775FECDE908013E480068FCF76FFE84
:1039D000CDE9060104EB840040000490DDE90A0112
:1039E000CDE90201DDE90801CDE900014648DDE944
:1039F0000623FDF7DFFF44E0641CBC4221D3012015
:103A00000C905046FCF753FECDE90A012E480068A1
:103A1000FCF74DFECDE908012A480068FCF747FE97
:103A20000496CDE90601DDE90A01CDE90201DDE9EF
:103A30000801CDE900013548DDE90623FDF7BAFFAD
:103A40001FE033480068401C3149086008460068A0
:103A50001E21B0FBF1F201FB120058B95046FCF7F1
:103A600026FE02460B46CDE90047CDE90A0129A012
:103A7000FDF7A0FF0A20FEF7EDFE0C9800283FF4AA
:103A80007DAF00BF0F4800680F49086000202C4937
:103A9000886000212A48C1600161002028498862AD
:103AA000C862169820B1FDF7DDF8C820FEF7D2FEF7
:103AB0004FF080415046FCF741FE01D2012054E70F
:103AC000002052E7E8000020200000202400002011
:103AD000B84000085BE6978BE8BDACE8AEBEE7BD3A
:103AE000AEE5AE8CE688905D20E4B88DE7AD89E563
:103AF000BE85EFBC8CE7AB8BE58DB3E8BF94E59B4F
:103B00009E0A0000280000204C41000800410008E7
:103B1000680000205BE6978BE8BDACE4B8AD5D20A3
:103B2000E8AFAFE5B7AE3A252E3266C2B02C20E83A
:103B3000BF9BE5BAA63A256C752F256C750A000067
:103B40006C010020012804D0022806D003280CD1E3
:103B500007E07821084A11600BE06E21064A1160E7
:103B600007E06E21044A116003E05A21024A116005
:103B700000BF00BF704700002400002010B50120E6
:103B80000B49087000200B4908700B4908600B496D
:103B9000086000210846FFF721FB00200849C862A1
:103BA0000849C862FFF7C0FA0020FFF7D9FA10BD34
:103BB0002D0000202C0000202400002028000020E0
:103BC000040100203801002070B504460D46FEF7C0
:103BD000D1FB06461148007800B170BD104800784E
:103BE000305CA04200D0F8E70E4804700E48057023
:103BF00001200E4908700A480078042802DBFFF70C
:103C0000BDFFEAE706480078401C054908700846F1
:103C10000078FFF797FF00BFDFE700002D000020CE
:103C20006300002065000020660000206400002082
:103C300070B504460D4616461748C0690121A140DB
:103C400008431549C86105EB85004000401E134933
:103C500051F82410888541F61F40104951F824106E
:103C600008850E4850F82400008840F001000B49F8
:103C700051F824100880094850F82400808940F049
:103C80000100064951F82410888104F11C00C1B2DA
:103C90003046FDF72DFA70BD00100240B80000203C
:103CA0002DE9F04F87B051A103C9CDE90501514875
:103CB00000788DF80C00504800788DF80D004F48C2
:103CC00000788DF80E004E4800788DF80F004D48B2
:103CD00000788DF810004C4800788DF811004B48A2
:103CE00000788DF812004A4800788DF813004FF0E4
:103CF000000AD146002408E003A8005D20B105A811
:103D00000057824409F10109641C082CF4DBB9F165
:103D1000000F0CDD4846FCF771FC02905046FCF7A2
:103D20006DFC01900299FCF7A3FA054601E03948C1
:103D3000056829463848FCF769FA02903748016857
:103D40003748FCF763FA01900299FCF707FA334908
:103D500008603048016831480068FCF751FA4FF0BC
:103D600082410090FCF752FA02902C4801684FF013
:103D70008340FCF74BFA01900299FCF7EFF9834678
:103D800026480068234908602448006820F0004065
:103D90004FF081410190FCF739FA0290FCF75AFC90
:103DA000204909680E1A462E00DA46265846FCF7C6
:103DB00051FC87195846FCF74DFCA6EB0008282F4C
:103DC00000DA2827B8F1280F01DA4FF02808FF2F72
:103DD00000DDFF27B8F1FF0F01DD4FF0FF0841467E
:103DE0003846FFF7FBF907B0BDE8F08FF9FBFDFFA0
:103DF000010305076C0000206D0000206E0000200C
:103E00006F00002070000020710000207200002070
:103E100073000020740000209A99993E78000020D9
:103E20003333333F240000202DE9F04F89B004469E
:103E300089460CB91F4800E01F4883464FEA091025
:103E40009BFBF0FA5046FCF7F8FBCDE9040148462D
:103E5000FCF7E2FB07460022184BFCF7EEFA05469A
:103E60000E465846FCF7CAFB0746FCF720FC2A46DC
:103E70003346CDE90001FCF752FBCDE90201DDE953
:103E80000423FCF7D4FACDE90601FCF73BFC0890CB
:103E90004FF083410898FCF7B9F908900898FCF7AF
:103EA000F2FB40EA0A10064951F82410088109B0D3
:103EB000BDE8F08F00A24A04005125020000304006
:103EC000C40000200146034850F821008088C0B299
:103ED00070470000C400002070B504460E46154629
:103EE00034B91448806940F480401249886108E080
:103EF0001048C06904F1100101228A4010430D49A5
:103F0000C861204600F01AF831462046FFF78CFFC2
:103F1000094850F82400808942F22C0108430649E0
:103F200051F82410888104F12500C1B22846FDF71C
:103F3000DFF870BD00100240C400002010B5044638
:103F400024B1012C0DD0022C21D115E0032209212E
:103F50000020FEF747FE04220A210020FEF742FE61
:103F600015E0032202210020FEF73CFE042203217B
:103F70000020FEF737FE0AE003220A210120FEF7A7
:103F800031FE04220B210120FEF72CFE00BF00BFF2
:103F900010BD2DE9F04104460CB9BDE8F08100E008
:103FA000641C20782328FBD020782428F8D020789F
:103FB0002028F5D02C212046FCF7C6F8054605B987
:103FC000EBE70020287000262078422802D02078D5
:103FD000622801D101260EE02078432802D0207803
:103FE000632801D1022606E02078442802D02078F8
:103FF000642800D10326681CFFF734F907463946C8
:104000003046FFF7E1FD00BFC7E7000102030000F3
:1040100002010300000000004FBB610567ACDD3FFB
:10402000182D4454FB21E93F9BF681D20B73EF3FDF
:10403000182D4454FB21F93FE2652F227F2B7A3C57
:10404000075C143326A6813CBDCBF07A8807703C10
:10405000075C143326A6913CC4EB98999999C9BF83
:10406000711623FEC671BCBF6D9A74AFF2B0B3BFB8
:104070009AFDDE522DDEADBF2F6C6A2C44B4A2BF78
:104080000D5555555555D53FFF8300922449C23FE4
:104090006E204CC5CD45B73F513DD0A0660DB13F18
:1040A000EB0D76244B7BA93F11DA22E33AAD903F2A
:1040B00000000000000000005BE6978BE8BDACE567
:1040C000BC80E5A78B5D20E5BD93E5898D3A252E63
:1040D0003266C2B02C20E79BAEE6A0873A252E328E
:1040E00066C2B02C20E6978BE8BDAC3A252E32662E
:1040F000C2B02C20E9809FE5BAA63A25640A0000E8
:104100005BE6978BE8BDACE8B685E697B65D20E543
:10411000BD93E5898D3A252E3266C2B02C20E79BEF
:10412000AEE6A0873A252E3266C2B02C20E8AFAFAB
:10413000E5B7AE3A252E3266C2B02C20E8B685E649
:1041400097B63A256C756D730A0000005BE6978B95
:10415000E8BDACE5AE8CE688905D20E5BD93E589D1
:104160008D3A252E3266C2B02C20E79BAEE6A087A2
:104170003A252E3266C2B02C20E8AFAFE5B7AE3A92
:10418000252E3266C2B02C20E794A8E697B63A25D1
:104190006C756D730A000000B84100080000002033
:1041A00004010000C01A0008BC42000804010020FD
:1041B000C4040000D01A0008000000000000000045
:1041C00000000000010100000000000000000000ED
:1041D00000000000000000000000000000000000DF
:1041E00001000000010000000000000066A6AC43D2
:1041F00000000000C0EC9E3D3333914200000000FF
:10420000CDCC284300000000CD4C764300000000D8
:10421000CD4CAB4300000000040001010000000091
:10422000000000000000000000000000000000008E
:10423000000000006F12833AA69B443B0000003F41
:104240000000803F00000000000000000000803FF0
:104250000AD7A33B0000000000000000000000009F
:104260000000000000080140000C01400010014067
:1042700000000040000400400008004000380140F9
:104280000044004000480040000000000000000022
:10429000000000000000000000000000000000001E
:1042A000000000000000000000000000000000000E
:0C42B00000000000000000000000000002
:04000005080000ED02
:00000001FF
