:020000040800F2
:10000000E005002001010008090100080B010008BB
:100010000D0100080F010008110100080000000098
:1000200000000000000000000000000013010008B4
:100030001501000800000000170100081901000860
:100040001B0100081B0100081B0100081B01000820
:100050001B0100081B010008190A0008310A0008EA
:10006000490A0008950A0008AD0A00081B010008AB
:100070001B0100081B0100081B0100081B010008F0
:100080001B0100081B0100081B0100081B010008E0
:100090001B0100081B0100081B010008E90A0008F9
:1000A0001B0100081B0100081B0100081B010008C0
:1000B0005514000875140008A11400081B0100085D
:1000C0001B0100081B0100081B0100081B010008A0
:1000D0001B010008BD140008E914000815150008EC
:1000E0001B0100081B0100081B010008DFF80CD0F1
:1000F00000F074FC00480047992A0008E005002041
:100100000648804706480047FEE7FEE7FEE7FEE7B1
:10011000FEE7FEE7FEE7FEE7FEE7FEE7F513000871
:10012000ED00000830B505462A460B4612F8010BD3
:1001300013F8014B08B1A042F8D01CB1002802D03E
:100140006D1CF1E7284630BDCAB2401E10F8011FF1
:100150008A4202D00029F9D100207047F0B480EA29
:100160000102D40F4200B2EB410F02D20246084610
:1001700011464A0042D0C30DDDB2C1F3C752AD1AD9
:10018000202D35DAC1F3160141F4000204B15242C8
:10019000C5F1200602FA06F12A411044B3EBD05F04
:1001A00023D0C4B1012DA0EBC35009DCF0BC4FF04B
:1001B000004202EAC352DBB200F5000000F03BBB94
:1001C000400000F1807000EBC350A0F1807040EA65
:1001D000D170490009E0490841EAC071A0EBC35061
:1001E00000F50000400800EBC350F0BC00F01ABB63
:1001F0006142012202EB4101001BF6E7F0BC7047AF
:1002000081F00041AAE780F00040A7E780EA010200
:1002100010B502F00043400022D04A001FD0010E6A
:1002200001EB1261C0F35600C2F3560240F4000025
:1002300042F40002A0FB022000047F39140400D025
:10024000401C50EA124001D44000491EC2B20C06C4
:1002500004EBD010401C4008802A02D003E00020AC
:1002600010BD20F00100002900DA0020184310BD65
:1002700030B480EA010202F0004530F0004221F083
:10028000004013D090B1C30DD40DC2F31601C0F3DA
:100290001600E41A41F4000140F400027D3491425A
:1002A00001D3641C00E04900002C02DA30BC0020BD
:1002B00070474FF400000023914201D3891A034391
:1002C00040084FEA4101F7D151B1914202D14FF0BC
:1002D000004105E002D24FF0010101E06FF00101A1
:1002E00003EBC450284430BC00F09CBA2DE9FE4F0B
:1002F000804681EA0300C00F0C46009021F00041C7
:1003000023F00045B8EB0200A94105D24046214642
:1003100090461C460B46024623F00040104347D04F
:10032000270DC7F30A00C3F30A510290401A019047
:1003300040286BDAC3F3130040F4801B0098924608
:1003400020B10023D2EB030A63EB0B0B0198594653
:10035000C0F14002504600F034FA06460D465046C1
:100360005946019A00F04CFA10EB08006141002454
:1003700087EA115284EAE7731A4340D0009A62B3C5
:10038000019A012A4FEA075215DC001B61EB0201BA
:100390004FF0004202EA0752CDE90042001C41F54D
:1003A000801132462B4600F083FA03B0BDE8F08F8F
:1003B00040462146F9E7001B61EB0201001C41F5B4
:1003C000801300185B412018A2F5001747EB0301CA
:1003D00040EAD570B6196D4111E06D084FEA360656
:1003E00045EAC0754FEA0752001B61EB0201001C91
:1003F00041F5801149084FEA300000195141324659
:100400002B4603B0BDE8F04F00F043BA009801223C
:1004100040000023D0EB020263EBE073009821461A
:100420004FEAE074B8EB000061EB0401E9E783F008
:1004300000435BE781F0004158E72DE9FE4F81EA78
:10044000030404F0004421F0004100944FF0000B3D
:1004500023F0004350EA01045ED052EA03045BD06B
:10046000C3F30A54C1F30A552C44A4F2F3340194A3
:10047000A0FB0254C1F3130141F48011C3F3130331
:1004800043F4801301FB024400FB034E840A970AE5
:1004900044EA815447EA8357A4FB076802958D0A12
:1004A00005FB07854FEA932C04FB0C542705029D9E
:1004B0004FEA065847EA1637B5EB08056EEB070C0E
:1004C000870E920E47EA811742EA8312A7FB0201C8
:1004D000B6EB0B0164EB00042B0D43EA0C335E1802
:1004E00044EB1C50DA465146E7FB0201C5F3130406
:1004F0004FEA0B3343EA14534FEA0432019C43EAB8
:100500000603A4F10C040294009CCDE900B400F0B1
:10051000CFF903B0BDE8F08F00200146F9E72DE9DF
:10052000F04D81EA030404F0004B21F0004514462D
:100530004FF0000A23F0004150EA050220D054EAAF
:1005400001021DD0C5F30A570246C5F31303C1F3D8
:100550001300C1F30A5640F4801543F48013A7EB4F
:100560000608101BD64608F2FD3873EB050002D3CF
:1005700008F1010801E092185B41B8F1000F03DABD
:1005800000200146BDE8F08D00204FF480110646A2
:1005900084460EE0171B73EB050705D3121B63EBB4
:1005A000050306434CEA010C49084FEA3000921853
:1005B0005B4150EA0107EDD152EA030012D082EA12
:1005C000040083EA0501084305D0101BAB4106D2A5
:1005D0000122002306E000224FF0004302E06FF00A
:1005E000010253101AEB06004CEB085110EB0A0005
:1005F00041EB0B01BDE8F04D00F04BB9C10F80EAB3
:10060000E0700844CA079623002100F014B996232D
:100610000022114600F00FB90EB5C10F80EAE0705C
:100620000844CA07002140F233438DE80E000A4611
:100630000B4600F03DF903B000BD0EB540F233416A
:1006400002910021CDE900110A460B4600F030F975
:1006500003B000BD00F0004220F00040C10DC0F327
:10066000160040F400007F2901DA00207047962927
:1006700003DCC1F19601C84001E096398840002AA8
:10068000F4D04042704720F00040C10DC0F3160086
:1006900040F400007F2901DA00207047962903DC2E
:1006A000C1F19601C840704796398840704700F004
:1006B000004230F000400AD0C10D01F56071C0F376
:1006C000160042EA0151C20840071143704700205A
:1006D0000146704701F0004330B421F0004150EA78
:1006E000010206D00A0DA2F56072C1F31301002ABF
:1006F00002DC30BC00207047440F44EAC104C10052
:10070000E01830BC00EBC25000F08CB8002801DBD0
:10071000C0F10040002901DBC1F100418142704776
:10072000002801DBC0F10040002901DBC1F10041DC
:100730008842704730B50B46014600202022012434
:1007400009E021FA02F59D4205D303FA02F5491B9F
:1007500004FA02F52844151EA2F10102F1DC30BDB5
:100760002DE9F05F0546002092469B4688460646E6
:10077000814640241BE0284641464746224600F079
:100780002FF853465A46C01A914110D311461846C5
:10079000224600F016F82D1A67EB01084F46224654
:1007A0000120002100F00DF817EB00094E41201E3A
:1007B000A4F10104DFDC484631462A464346BDE841
:1007C000F09F202A04DB203A00FA02F10020704753
:1007D0009140C2F1200320FA03F31943904070477F
:1007E000202A04DB203A21FA02F00021704721FA86
:1007F00002F3D040C2F120029140084319467047ED
:10080000202A06DBCB17203A41FA02F043EAE073D4
:1008100006E041FA02F3D040C2F1200291400843C1
:10082000194670470029A8BF7047401C490008BFFF
:1008300020F00100704710B4B0FA80FC00FA0CF010
:1008400050EA010404BF10BC704749B1CCF1200448
:1008500021FA04F411FA0CF118BF012121430843D5
:10086000A3EB0C01CB1D4FEA00614FEA102042BF01
:10087000002010BC704700EBC35010440029A4BFF7
:1008800010BC7047401C490008BF20F0010010BC9C
:10089000704710B5141E73F1000408DA401C41F1D2
:1008A000000192185B411A4301D120F0010010BDF4
:1008B0002DE9F04D92469B4611B1B1FA81F202E06A
:1008C000B0FA80F220329046FFF77BFF04460F46D5
:1008D00040EA0A0041EA0B0153465A46084313D046
:1008E000114653EA010019D0C8F140025046FFF703
:1008F00077FF05460E46504659464246FFF761FFD0
:10090000084305D0012004E020463946BDE8F08DBB
:100910000020054346EAE0762C4337430A986305F6
:10092000E40AA0EB08000022FD0A44EA47540A301A
:1009300002D500200146E9E7010510196941DDE90A
:10094000084500196941BDE8F04DA2E770B521F0F6
:10095000004303430CD0C1F30A550024D5EB040532
:1009600064EB0403D617AD1AB34102DB0020014645
:1009700070BD201841EB025170BDC1F30A52C1F3A2
:10098000130140F2FF3341F480119A4202DA002051
:100990000146704740F233439A42A2F2334202DCEE
:1009A0005242FFF71DBFFFF70CBF000030B5041E19
:1009B00071F1000404DB4FF00044404264EB01019C
:1009C000141E73F1000405DB1C464FF00043524235
:1009D00063EB0403994208BF904230BD064C074DBB
:1009E00006E0E06840F0010394E8070098471034FF
:1009F000AC42F6D3FFF77EFB883B0008A83B00081B
:100A000010B500220F21022001F034FE01220F2137
:100A1000022001F001FF10BD0448006800F0010051
:100A200010B1012001490860704700001404014022
:100A30000448006800F0020010B10220014908607B
:100A4000704700001404014010B50F48006800F022
:100A50000400B8B10321002001F0FAFD50B10B48A9
:100A60000068401C0949086009480068401C0849A2
:100A7000086004E005480068401E0449086004203E
:100A80000149086010BD000014040140240000204A
:100A90002C0000200448006800F0080010B1082075
:100AA00001490860704700001404014010B50C486B
:100AB000006800F0100090B10521002001F0C8FD91
:100AC00028B108480068401C0649086004E0054851
:100AD0000068401E0349086010200149086010BDED
:100AE00014040140280000202DE9FF5F44480068FD
:100AF00000F0200010B12020414908604048006803
:100B000000F0400010B140203D4908603C480068BA
:100B100000F0800000285FD000F00AFA3948B0F9F0
:100B20000000FFF76BFD0190FFF7C1FD82464FF01B
:100B30006632354BFFF7F3FC0646344A344BFFF779
:100B40007CFCCDE9020133480068FFF7B0FD0446A4
:100B5000DDE90223FFF7CAFB8046FFF7BBFD2D4905
:100B600008602D48B0F90000FFF756FD82468B461D
:100B70002A48B0F90000FFF741FD0390FFF797FD09
:100B8000804652465B4601F0D1FA0646244A254B80
:100B9000FFF753FC0446FFF79DFD23490860194801
:100BA000B0F90000FFF72AFD8146FFF780FD0746F8
:100BB0004FF06632144BFFF7B2FC0546FFF78AFD93
:100BC0000446224618480168184800F0F9F8184908
:100BD000086080200A4908600948006800F48070B5
:100BE00018B14FF48070064908600548006800F4A9
:100BF000007018B14FF4007001490860BDE8FF9F14
:100C000014040140F6000020666630407B14AE47B5
:100C1000E17A743F00010020EC000020EE0000208B
:100C2000D9CEF753E3A54C400C01002094000020DE
:100C30001801002010B500220F21022001F0ECFD68
:100C4000642001F08BFB01220F21022001F0E4FD62
:100C500010BD10B500220F21012001F0DDFD4FF481
:100C6000967001F07BFB01220F21104601F0D4FDAC
:100C700010BD10B502220A21012001F0FBFC022266
:100C80000B21012001F0F6FC01220B21104601F09E
:100C9000C3FD01220A21104601F0BEFD10BD10B5B2
:100CA00001220B21104601F0B7FD01220A21104656
:100CB00001F0B2FD00220A21012001F0ADFD10BDBE
:100CC00070B5002501220B21104601F0A5FD00247E
:100CD00012E001220A21104601F09EFD0B210120A5
:100CE00001F0B6FC10B180202041054300220A210A
:100CF000012001F091FD641C082CEADB284670BD40
:100D000070B50546002419E080202041284028B114
:100D100001220B21104601F07FFD04E000220B218F
:100D2000012001F079FD01220A21104601F074FD35
:100D300000220A21012001F06FFD641C082CE3DB76
:100D400070BD10B501220B21104601F065FD012296
:100D50000A21104601F060FD00220B21012001F064
:100D60005BFD00220A21012001F056FD10BD10B5E7
:100D700000220B21012001F04FFD01220A21104623
:100D800001F04AFD01220B21104601F045FD10BD86
:100D900010B5002401220B21104601F03DFD012277
:100DA0000A21104601F038FD0B21012001F050FC12
:100DB000044600220A21012001F02EFD204610BD2C
:100DC0002DE9F05F04460D4616463046E16AFFF70E
:100DD00017FA8046E169FFF719FA0746A16AFFF79B
:100DE000BDF9A062E06AE062D4E90601FFF70EFAFD
:100DF0008246E169FFF70AFA8046D4E90401FFF769
:100E0000ADF98346E169FFF701FA8246E168FFF731
:100E1000FAF981464146FFF7A1F907462168FFF735
:100E20009DF9E060D4E90601FFF7F0F90746216972
:100E3000FFF7E9F92061D4E90601FFF7E7F9074672
:100E40006169FFF7E0F960616168A069FFF786F901
:100E5000A061D4E90210FFF781F907463946E0683E
:100E6000FFF706FA2062D4E90210FFF777F9074688
:100E700039466069FFF7FCF960622846A16AFFF70E
:100E8000BFF98046216AFFF7C1F90746A16AFFF75B
:100E900065F9A0622846A16AFFF7B2F98046616A47
:100EA000FFF7B4F90746E16AFFF758F9E0624FF03F
:100EB0007E50216AFFF7A4F90746E168FFF7A6F91B
:100EC000E0604FF07E50216AFFF79AF907462169EA
:100ED000FFF79CF92061616AE068FFF797F9074620
:100EE0006169FFF790F96061616A2069FFF78EF927
:100EF0000746A169FFF787F9A061A06ABDE8F09FE6
:100F000010B501220C21104601F0B4FB01220D2185
:100F1000104601F0AFFB01220E21104601F0AAFBA2
:100F200010BD10B500220F21012001F0A3FB10BD60
:100F300070B53B2000F078F804463C2000F074F8CF
:100F4000054645EA042000B2244908803D2000F00F
:100F50006BF804463E2000F067F8054645EA042099
:100F600000B21F4908803F2000F05EF80446402090
:100F700000F05AF8054645EA042000B219490880F5
:100F8000432000F051F80446442000F04DF8054697
:100F900045EA042000B214490880452000F044F8D6
:100FA0000446462000F040F8054645EA042000B219
:100FB0000E490880472000F037F80446482000F02A
:100FC00033F8054645EA042000B20949088008467E
:100FD00000880D3800B2088070BD0000EC000020D1
:100FE000EE000020F0000020F2000020F4000020BD
:100FF000F600002010B502216B2000F035F8272103
:10100000192000F031F800211A2000F02DF81821E5
:101010001B2000F029F800211C2000F025F80121F8
:10102000382000F021F810BD70B50446FFF789FEA6
:10103000D020FFF765FEFFF7ABFE2046FFF760FE0E
:10104000FFF7A6FEFFF793FEFFF77BFED120FFF729
:1010500057FEFFF79DFEFFF733FE0546FFF71FFE25
:10106000FFF785FE284670BD70B505460C46FFF7B4
:1010700068FED020FFF744FEFFF78AFE2846FFF700
:101080003FFEFFF785FE2046FFF73AFEFFF780FEA2
:10109000FFF76DFE70BD0000014607238B431A0267
:1010A000054B18684FF6FF0318401043034B1843D5
:1010B000014B1860704700000CED00E00000FA05DD
:1010C00070B505460C460420FFF7E6FF0E48005DAC
:1010D00000F0010646EA0510C1B20B480155204652
:1010E000E21704EBD2625211A4EB421301229A40A0
:1010F0002146E31704EBD3635B119B0003F1E0236C
:10110000C3F8002170BD000000E400E070B50024C9
:101110000EE00021204600F0C7F8002504E0002082
:1011200000F0E3F8681CC5B2802DF8DB601CC4B287
:10113000082CEEDB70BD10B502220D21012001F05C
:1011400099FA02220E21012001F094FA01220D21C8
:10115000104601F061FB01220E21104601F05CFBFC
:1011600010BD70B50546002413E08020204100EA40
:1011700005020E21012001F04FFB01220D21104636
:1011800001F04AFB00220D21012001F045FB601C0B
:10119000C4B2082CE9DB01220D21104601F03CFB12
:1011A00000220D21012001F037FB70BD10B5012296
:1011B0000E21104601F030FB01220D21104601F0F6
:1011C0002BFB00220E21012001F026FB00220D2125
:1011D000012001F021FB10BD10B500220E210120DD
:1011E00001F01AFB01220D21104601F015FB01222E
:1011F0000E21104601F010FB10BD70B5002406E072
:10120000002500E06D1CB5F57A7FFBD3641CB4F5B6
:101210007A7FF5D3FFF78FFFAE2000F056F8D52088
:1012200000F053F8802000F050F8A82000F04DF8AE
:101230003F2000F04AF8D32000F047F8002000F0EB
:1012400044F8402000F041F8A12000F03EF8C8200A
:1012500000F03BF8DA2000F038F8122000F035F802
:10126000812000F032F8CF2000F02FF8D92000F0D4
:101270002CF8F12000F029F8DB2000F026F83020CF
:1012800000F023F8A42000F020F8A62000F01DF8BC
:101290008D2000F01AF8142000F017F8AF2000F0AD
:1012A00014F8FFF733FF70BD70B505460C4645F0E6
:1012B000B00000F00AF8102141EA141000F005F81F
:1012C00004F00F0000F001F870BD10B50446FFF700
:1012D0006DFF7820FFF745FF0020FFF742FF204613
:1012E000FFF73FFFFFF778FF10BD10B50446FFF78B
:1012F0005DFF7820FFF735FF4020FFF732FF2046E3
:10130000FFF72FFFFFF768FF10BD10B500F002F8E0
:1013100010BD00000CB5002001900090334800681B
:1013200040F480303149086000BF3048006800F464
:10133000003000900198401C0190009818B9019865
:10134000B0F5A06FF1D12948006800F4003010B169
:101350000120009001E0002000900098012843D176
:101360002348006840F010002149086008460068E2
:1013700020F0030008600846006840F002000860A2
:101380001A4840681949486008464068486008465D
:10139000406840F4806048600846406820F47C1053
:1013A00048600846406840F4E81048600846006815
:1013B00040F08070086000BF0C48006800F00070CA
:1013C0000028F9D00948406820F003000749486028
:1013D0000846406840F00200486000BF034840688B
:1013E00000F00C000828F9D10CBD000000100240EC
:1013F0000020024010B51348006840F00100114978
:10140000086008464068104908400E494860084690
:1014100000680E4908400B4908600846006820F43F
:10142000802008600846406820F4FE0048604FF4C1
:101430001F008860FFF769FF4FF0006004490860F3
:1014400010BD0000001002400000FFF8FFFFF6FE94
:1014500008ED00E04FF08040008A00F0010038B154
:101460004FF08040008A20F001004FF08041088258
:101470007047000010B50848008800F0010048B12E
:101480000648006801F0FEFD0348008820F00100D6
:101490000149088010BD0000100400403800002001
:1014A0000548008800F0010028B10348008820F0BA
:1014B00001000149088070471008004010B5084835
:1014C000008800F0200050B1002002F065FA0549C4
:1014D00008600348008820F020000149088010BD02
:1014E000003801400400002010B50948008800F0D1
:1014F000200058B1012002F04FFA044600F0D6FE59
:101500000348008820F020000149088010BD000039
:10151000004400400548008800F0200028B103483E
:10152000008820F0200001490880704700480040F2
:101530000FB4054B10B503A9044A029800F040F916
:1015400010BC5DF814FB000035260008E800002000
:10155000490050EAC12018BF04204A0D18BF40F0CE
:10156000010040F2FF72B2EB515F08BF40F0020091
:10157000012808BF052070472DE9F0414F1E00EB00
:10158000C7010446D1E9000115461E4637F00602A0
:101590000DD02A463346FEF750FF7F1E04EBC703EB
:1015A000D3E90023FEF7A2FE37F00602F1D1022FA5
:1015B00025D0042F13D0062F18BFBDE8F0812A468E
:1015C0003346FEF73AFFD4E90A23FEF78FFE2A4698
:1015D0003346FEF732FFD4E90823FEF787FE2A469A
:1015E0003346FEF72AFFD4E90623FEF77FFE2A469C
:1015F0003346FEF722FFD4E90423FEF777FE2A469E
:101600003346FEF71AFFD4E90223FEF76FFE2A469F
:101610003346FEF712FFD4E90023BDE8F041FEF7A0
:1016200065BE0122FFF792B9FEF760BE024A0020B4
:101630001107FFF78BB9000001FDFFFF02E008C8AA
:10164000121F08C1002AFAD170477047002001E03C
:1016500001C1121F002AFBD1704700002DE9FF5F76
:10166000DDE90220010DDDF838B0024318D044F660
:101670001050A1F2FF3141430D140F98012820D0E2
:10168000A5EB0B00401C5FEA000A4FF00004474E38
:10169000DFF81C91A046504616D5CAF1000728E095
:1016A0000F98012443A2012808D0002100980F9B25
:1016B000C0E90021C0E90243BDE8FF9F6FEA0B01CA
:1016C000F4E7CBF10000DEE7074612E0F80707D0A9
:1016D0002246334640464946FEF7AFFE80468946DD
:1016E0002246334610461946FEF7A7FE04460E462C
:1016F0007F10002FEAD1DDE90201BAF1000F424666
:101700004B4602DAFEF799FE01E0FEF708FF0446B9
:101710000E460022284BFFF749F903D84FF0FF305F
:10172000014607E00022254B20463146FEF7DEFD4C
:10173000FFF723F9102409E0002C0ADB0A2200231A
:10174000FFF70EF8019B30321A55641E50EA010271
:10175000F2D1641C019AC4F1110314440F9A012AB6
:1017600003D0012208430DD10AE0084304D0002031
:101770004FF0110B0F9080E7A3EB0B056D1E0DE0F2
:101780005B4504DD4FF0000205F1010504E003DADA
:101790004FF00002A5F10105002AECD000980F9946
:1017A000C0E90231C0E9004586E70000000024409E
:1017B0000000F03F300000000000F0430000E03F78
:1017C0002DE9FF4F95B09B468946064600250FE25E
:1017D000252877D100242746F84A0121059400E006
:1017E000044316F8013F203B01FA03F01042F7D101
:1017F00030782A2811D06FF02F033078A0F1300212
:10180000092A16D8059A44F0020402EB820203EB7F
:1018100042021044761C0590EFE759F8042B05921C
:10182000002A03DA504244F40054059044F00204C4
:10183000761C30782E2816D116F8010F44F00404D7
:101840002A280DD06FF02F023078A0F13003092B39
:1018500009D807EB870302EB4303C718761CF3E7AD
:1018600059F8047B761C30786C280FD006DC4C28A5
:1018700017D068280DD06A2814D104E0742810D03D
:101880007A280FD10DE044F400140AE044F48014E7
:1018900001E044F440147278824202D104F58014CD
:1018A000761C761C307866280BD013DC582877D04D
:1018B00009DC002875D04528F6D04628F4D0472802
:1018C0001AD19DE118E0632835D0642879D06528C5
:1018D00012D195E1702873D008DC6728F1D069280F
:1018E0006FD06E280DD06F2806D1B5E073282CD0AC
:1018F000752875D0782874D05A46179990476D1C72
:1019000075E1C4F30250022809D003280DD0D9F89C
:10191000001004280DD00D6009F1040967E1D9F821
:101920000010EA17C1E90052F6E7D9F800100D805F
:10193000F2E70D70F0E719F8041B8DF80010002095
:101940008DF80100EA46012003E059F804AB4FF09E
:10195000FF3061074FF0000102D40DE008F10101F2
:101960008846B9420FDA8045F8DB1AF808100029DA
:10197000F4D108E008F1010188468142FADB1AF847
:1019800008100029F6D105985B46A0EB0807214610
:101990003846179A00F094FA284400EB080507E04F
:1019A0004DE029E10DE01AF8010B5A4617999047CE
:1019B000B8F10108F7D25B4621463846179A13E181
:1019C00042E00A220092C4F302524FF0000A022AB7
:1019D00008D059F804CB032A4FEAEC710AD00DE085
:1019E00029E02AE009F1070121F00702F2E802C12B
:1019F000914609E00FFA8CFC4FEAEC71042A03D1FE
:101A00004FFA8CFC4FEAEC71002907DA0A460021F4
:101A1000DCF1000C61EB02012D2202E0220504D56D
:101A20002B228DF80420012203E0E20701D02022BE
:101A3000F7E7904659E00A2102E010220DE010215C
:101A40004FF0000A00910BE010224FF0000A44F022
:101A500004040827009203E008224FF0000A0092D5
:101A6000C4F30252022A05D059F804CB0021032AFC
:101A700008D009E009F1070121F00702F2E802C1EC
:101A8000914605E01FFA8CFC042A01D10CF0FF0CF2
:101A90004FF00008220728D5702806D0009B83F05D
:101AA000100353EA0A0305D00EE040228DF804200B
:101AB000012208E05CEA010206D030228DF8042001
:101AC0008DF8050002229046009B83F0080353EA3C
:101AD0000A030AD15CEA010201D1620705D530226E
:101AE0008DF804204FF001087F1E582804D034A040
:101AF00003900EA802900DE036A0F9E75346604629
:101B0000009AFEF72DFE84460398825C0298401EE0
:101B1000029002705CEA0100F0D1029806A9081A4E
:101B200000F1200A600702D524F4803400E0012788
:101B3000574502DDA7EB0A0000E0002000EB0A0198
:101B4000009005984144401A0590E00306D45B4696
:101B50002146179A059800F0B3F90544002706E0DE
:101B600001A85A46C05D179990476D1C7F1C4745D8
:101B7000F6DBE0030CD55B462146179A059800F08A
:101B80009FF9054404E030205A46179990476D1C90
:101B90000099481E00900029F5DC08E0029802999F
:101BA0005A460078491C0291179990476D1CBAF16A
:101BB0000001AAF1010AF1DC65E100000928010039
:101BC00030313233343536373839616263646566B3
:101BD0000000000030313233343536373839414275
:101BE000434445460000000000F058F90544761CC7
:101BF000307800287FF4ECAD19B02846BDE8F08FAE
:101C0000620700D4062709F1070222F0070CFCE85E
:101C10000223E14603F000485FEA080C02D00FF20D
:101C2000702C0DE05FEA045C02D50FF2682C07E02F
:101C30005FEAC47C02D00FF2602C01E0AFF2700CBE
:101C40004FF0FF3823F00043CDF850C065280CD08A
:101C500006DC452809D046281DD047283DD13DE067
:101C6000662818D067287ED138E00021112F01DBCB
:101C7000112000E0781CCDE9000106A90EA8FFF7AD
:101C8000EDFCDDE90F010E9A03910021009207F1AE
:101C9000010A04914DE04FF000400097CDE901109A
:101CA00006A90EA8FFF7DAFCDDE90F0203920E9BEE
:101CB00011990022DDF80CA00093049211B9791C4F
:101CC00000EB010AB7EB0A0004D4C0F1FF3007F1C2
:101CD000010A0490AAEB0700019044E0012F00DA0A
:101CE00001270021112F01DD112000E03846CDE948
:101CF000000106A90EA8FFF7B1FCDDE90F010E9A5D
:101D00000391002104910092BA4621070CD4039953
:101D1000514500DA8A46BAF1010F05DD009AAAF1B1
:101D20000101515C302908D0B84202DA10F1040FE9
:101D300006DA0121CDE9011015E0AAF10101E9E778
:101D4000002805DC049901440491AAEB000102E09B
:101D5000411C514500DD8A460499401A401C0190FF
:101D60004FF000400290200704D40198504501DB59
:101D7000CDF8048000208DF84F0002980DF14F0738
:101D8000B0F1004F25D02B200E9002984FF00208A2
:101D900000280CDA404202902D200E9007E00A2124
:101DA0000298FEF7C7FC3031029007F8011DB8F128
:101DB0000001A8F10108F2DC02980028EFD1791E99
:101DC0000E980870307800F0200040F0450007F8C9
:101DD000020D12A8C01B00F107081498007800B18A
:101DE000012000EB0A01019801EBE07105984144E4
:101DF000401A401E0590E00306D45B462146179A20
:101E0000059800F05DF805441498007818B15A461A
:101E1000179990476D1CE00324D55B462146179A1D
:101E2000059800F04DF805441CE00498002807DBF5
:101E3000DDE90301884203DD0098405C179901E069
:101E4000179930205A469047049805F10105401C27
:101E500004900198401E019004D12E205A461799F3
:101E600090476D1CBAF10001AAF1010ADDDC05E022
:101E700017F8010B5A46179990476D1CB8F10001ED
:101E8000A8F10108F4DC5B462146179A0598ABE6F9
:101E90002D0000002B000000200000002DE9F04183
:101EA000044600251E461746880404D405E039463A
:101EB0002020B0476D1C641EF9D52846BDE8F0818E
:101EC0002DE9F041044600251E469046C80301D581
:101ED000302700E02027880404D505E04146384635
:101EE000B0476D1C641EF9D52846BDE8F08100009E
:101EF00003480078022801D1024870470248FCE7F5
:101F00007A000020E33A0008DE3A00082DE9F84F95
:101F100004460D4621F0004000917349814211DCD6
:101F20007249884201DC06D12CB120462946BDE821
:101F3000F84FFFF776BB6E48002DCCBF6D496E4958
:101F4000BDE8F88F6D49814211DD6D498142D8BFEE
:101F50004FF0FF366DDD20462946FFF7F9FA0428D9
:101F600008BFFFF763FB20462946BDE8F88F6549A7
:101F7000654F25F00045814233DD6449814219DD1A
:101F8000002632464FF0804320462946FEF7AEF940
:101F900080468A46012220462946FEF7D7FC0022C9
:101FA0003B46FEF744FA42465346FEF7B8FA04466B
:101FB0000D463EE001260022BA463B462046294611
:101FC000FEF794F980460F460022534620462946E4
:101FD000FEF72DFA42463B46FEF7A1FA04460D46AF
:101FE00027E04B4981421BDDDFF828A102260022B1
:101FF000534620462946FEF720FA00223B46FEF7CC
:1020000075F980460F460022534620462946FEF7C2
:102010000EFA42463B46FEF782FA04460D4608E0B9
:10202000032622462B4600203B49FEF778FA044659
:102030000D4622462B4610461946FEF7FEF98B4602
:10204000824602460B46FEF7F8F907460246334839
:1020500088460B4606217844FFF78EFA52465B46C7
:10206000FEF7EBF982462E488B463A464346052159
:102070007844FFF781FA3A464346FEF7DEF9024616
:102080000B46002E504659460CDAFEF72FF9224631
:102090002B46FEF7D2F901B022462B46BDE8F04FA1
:1020A000FEF7C8B9FEF722F922462B46FEF7C5F91E
:1020B0001C4A7A4402EBC603D3E90023FEF7B7F9C2
:1020C00022462B46FEF7B3F9174A7A4402EBC603C1
:1020D000D3E90023FEF7AEF9009A002AB8BF81F0D9
:1020E0000041BDE8F88F0000000010440000F07FC0
:1020F000182D4454FB21F93FFB21F9BF0000DC3FC0
:102100000000203E0000F33F0000F03F0000E63FEB
:10211000008003400000F83F0000F0BFF61A000006
:10212000B41A0000521A00001A1A00002DE9F04DEE
:102130009446CCF1000423F000464CEA0404524FCC
:1021400046EAD4749A46884621F00042BC4206D83A
:10215000454240EA050442EAD474BC4204D9BDE8D1
:10216000F04D6246FFF760BAAAF14055A5F17F65D0
:1021700055EA0C040BD0022404EAAA74434DDFF89C
:1021800010E144EAD87452EA000B04D00CE0BDE838
:10219000F04DFFF7BBBE002C14BF012CBDE8F08D45
:1021A000022C30D0032C32D056EA0C0B0AD0BE429F
:1021B00020D1BA4209D126F0804622F0804233462F
:1021C000114617E000291ADB25E0DFF8C8B0FB4410
:1021D000002C04BFDBE90001BDE8F08D012C02BF3B
:1021E000DBE9000181F00041BDE8F08D022C0AD04E
:1021F000032C0CD0BA4212D1B8F1000F0BDA2348ED
:102200002549BDE8F08D28462449BDE8F08D2846D3
:102210007146BDE8F08D1D482149BDE8F08D921B47
:1022200012153C2AC4BF19481D490EDCBAF1000F33
:10223000BEBF12F13C0F0020014606DB6246FEF7EE
:102240006EF921F00041FFF761FE002C08BFBDE8E8
:10225000F08D012C04BF81F00041BDE8F08D114AE2
:10226000114B022C07D0FEF7E2F82A46BDE8F04DEC
:102270000A4BFEF7DCB8FEF7DAF82A46BDE8F04D67
:10228000064BFEF7D7B800000000F07F182D44542D
:10229000FB2109C0AE190000FB21F9BFFB21094059
:1022A000FB21F93F075C143326A6A13C10B5044678
:1022B0000D2C00D110BD0A2C0BD100200E490F4A65
:1022C00012788854084601F0CEFB00200B490870B4
:1022D000F0E70A480078272808D2084801780078F3
:1022E000401C064A10700448445402E00020034990
:1022F000087000BFDEE70000B80100207F0000206A
:1023000010B51148007810B11048007800B110BD28
:10231000002413E00E4800EBC400007960B90C48BB
:1023200050F834100B480068FEF7FAF904D8012081
:10233000074901EBC4010871601CC4B2064800786B
:102340008442E7DB00BFE2E74D0000204C000020A4
:1023500058000020440000207800002000B503460B
:1023600003E04FF47A7000F005F81800A3F10103C0
:10237000F7D100BD00EBC001C9004FF0E022516170
:10238000002191610521116100BF4FF0E021096931
:1023900001F480310029F8D004214FF0E0221161CE
:1023A000704710B500220121062000F011F801222B
:1023B0000321002000F05EF9002201210C2000F032
:1023C00007F801220521002000F054F910BD00009B
:1023D0002DE9F04704460E461746032194FBF1F021
:1023E000C11700EB91718910A0EB810189064FEABA
:1023F0001168032194FBF1F0C11700EB9171C1F357
:102400008705204600F06AF83148806940F00100F5
:102410002F4988614FEAB13050F825000F2101FAA9
:1024200008F188432B4941F82500032094FBF0F183
:1024300000FB114088B1032094FBF0F100FB114038
:10244000401E012101FA00F000FA08F0214951F87C
:10245000251001431F4840F82510032094FBF0F19C
:10246000012088401C49096808431B49086066B977
:10247000032094FBF0F101208840174908310968D6
:1024800008431549083108600BE0032094FBF0F184
:102490000120884010490C31096808430E490C316D
:1024A0000860032094FBF0F004280ADC032094FB6E
:1024B000F0F0801D00F0FF0949463846FEF700FEA7
:1024C00003E017213846FEF7FBFDBDE8F08700006A
:1024D00000100240080001400004014010B504460D
:1024E000192C13D2DFE804F00D13191F252B3137F7
:1024F0003D43494F555B61676D73797F858B91973C
:102500009D0001220021084600F0B4F88FE001226E
:102510000021104600F0AEF889E0012200210220DF
:1025200000F0A8F883E001221146002000F0A2F894
:102530007DE001221146104600F09CF877E0012270
:102540001146022000F096F871E0012202210020DD
:1025500000F090F86BE001220221104600F08AF8AA
:1025600065E001220221084600F084F85FE00122C4
:102570000321002000F07EF859E0012203211046DB
:1025800000F078F853E001220321022000F072F8F5
:102590004DE001220421002000F06CF847E0012208
:1025A0000421104600F066F841E0012204210220D7
:1025B00000F060F83BE001220521002000F05AF80D
:1025C00035E001220521104600F054F82FE00122E9
:1025D0000521022000F04EF829E00122062100200A
:1025E00000F048F823E001220621104600F042F8EE
:1025F0001DE001220621022000F03CF817E0012234
:102600000721002000F036F811E0012207211046D2
:1026100000F030F80BE001220721022000F02AF838
:1026200005E001220921104600F024F800BF00BF98
:1026300010BD000000BF054A128802F04002002AC7
:10264000F9D0C2B2014B1B1D1A80704700380140FF
:1026500010B50246064850F82200806801248C40DC
:1026600000EA04030BB1012010BD0020FCE70000CC
:10267000C400002070B5654CA469042585402C4336
:10268000624DAC6108295DDA614C54F82040246841
:102690008E000F25B540AC435D4D55F820502C60A1
:1026A0001AB1032A01D0022A0FD10124944044F028
:1026B00003048D00AC40564D55F820502D682C4336
:1026C000534D55F820502C609FE0012A01D0042A78
:1026D0002AD14F4C54F8204024688E000825B5407C
:1026E0002C434B4D55F820502C60012A0ED1484CFC
:1026F00054F82040E46801258D4024EA05030124B4
:102700008C401C43424D55F82050EC60042A7CD18B
:102710003F4C54F82040E56801248C40A5433C4CD4
:1027200054F82040E56070E0042494408D00AC40F3
:10273000374D55F820502D682C43354D55F8205015
:102740002C6062E0324C54F820406468A1F1080526
:10275000AE000F25B540AC432D4D55F820506C60B0
:102760001AB1032A01D0022A11D10124944044F065
:102770000304A1F10805AD00AC40254D55F82050EB
:102780006D682C43224D55F820506C603DE0012AC5
:1027900001D0042A2AD11E4C54F820406468A1F1CB
:1027A0000805AE000825B5402C43194D55F82050BA
:1027B0006C60012A0CD1174C256801248C4025EA55
:1027C000040301248C401C43114D55F82050EC604B
:1027D000042A1AD10E4C54F82040E46801258D409B
:1027E000AC430B4D55F82050EC600EE004249440AF
:1027F000A1F10805AD00AC40054D55F820506D68BD
:102800002C43034D55F820506C6070BD0010024001
:10281000C40000200C08014030B57AB10D4C54F8CA
:102820002040E46801258D4024EA050301248C4002
:102830001C43084D55F82050EC600AE0054C54F854
:102840002040E46801258D40AC43024D55F82050EE
:10285000EC6030BDC400002010B50446092C76D2CF
:10286000DFE804F08605152535455565760000221C
:1028700006210120FFF7D0FF002208210120FFF7E9
:10288000CBFF002205210120FFF7C6FF71E00022E7
:1028900006210120FFF7C0FF002208210120FFF7D9
:1028A000BBFF012205211046FFF7B6FF61E00022C1
:1028B00006210120FFF7B0FF012208211046FFF793
:1028C000ABFF002205210120FFF7A6FF51E0002207
:1028D00006210120FFF7A0FF012208211046FFF783
:1028E0009BFF012205211046FFF796FF41E00122E0
:1028F00006211046FFF790FF002208210120FFF774
:102900008BFF002205210120FFF786FF31E0012225
:1029100006211046FFF780FF002208210120FFF763
:102920007BFF012205211046FFF776FF21E00122FF
:1029300006211046FFF770FF012208211046FFF71D
:102940006BFF002205210120FFF766FF11E00FE079
:10295000012206211046FFF75FFF012208211046E1
:10296000FFF75AFF012205211046FFF755FF00E04F
:1029700000BF00BF10BD10B5002205210120FFF7E8
:1029800079FE002208210120FFF774FE00220621B3
:102990000120FFF76FFE01220F210020FFF76AFEE2
:1029A00010BD000010B50120FFF756FF0F210020D9
:1029B000FFF74EFE08B1012000E000202E4908700C
:1029C0000220FFF749FF0F210020FFF741FE08B169
:1029D000012000E00020294908700320FFF73CFF98
:1029E0000F210020FFF734FE08B1012000E0002095
:1029F000234908700420FFF72FFF0F210020FFF765
:102A000027FE08B1012000E000201E4908700520C3
:102A1000FFF722FF0F210020FFF71AFE08B1012067
:102A200000E00020184908700620FFF715FF0F216D
:102A30000020FFF70DFE08B1012000E0002013493F
:102A400008700720FFF708FF0F210020FFF700FEA6
:102A500008B1012000E000200D4908700820FFF7B0
:102A6000FBFE0F210020FFF7F3FD08B1012000E07D
:102A700000200849087010BD840000208500002057
:102A800086000020870000208800002089000020A8
:102A90008A0000208B0000201CB5FDF7B1FFFEF777
:102AA000ACFB00F0F5F9FFF77CFCFEF729FAFEF726
:102AB00038FA00224FF4E131104600F077FFFFF7BB
:102AC0005AFFFEF7D6F8FEF795FA8B4800238B4A9B
:102AD000012100908A4800F0EBFB87480023874AD9
:102AE00001210090874800F0E3FB8748002382071C
:102AF00019460090854800F0DBFB002211461620A5
:102B0000FFF766FC00220A21012000F0FBFD0120F6
:102B10007F49086000207F49086082207E49086064
:102B20007E487F49086000207E4908607E49087021
:102B30007E4908707E487F49086041F288307E49AE
:102B40000860002006E000217C4A02EBC0021171FF
:102B5000411CC8B27A4909788842F4DB00207949DF
:102B60000870FEF767F8FEF774F84FF4FA70FFF795
:102B7000F5FB00BF74A0FEF7DBFCBBE07448006807
:102B8000401C7349086008460068B0F57A7F01D997
:102B9000002008606F480068401C6E4908600846C5
:102BA000006832281ED36C48B0F90000FDF726FDFE
:102BB00005466A49FDF75CFB044669480068FDF775
:102BC00076FD05460E462046FDF771FD07463A465E
:102BD0000B4664A0CDE90056FEF7AAFC00205D4933
:102BE000086000BF002437E0544800EBC4000079BF
:102BF00001282FD1FEF71EF8FEF72BF802204F49CF
:102C000001EBC40108716148007810BB4D480078A1
:102C1000F8B9414800685E49086008460068002825
:102C200001DC7820086001205849087000205949CB
:102C3000086039490860414951F83400FDF737FD13
:102C400005463D4800682A460B46009052A0FEF714
:102C50006FFC05E0601CC4B2394800788442C3DBD5
:102C600000BF4A48007808B300202B490860494853
:102C700000680A3047490860084600682E4909681C
:102C8000884213D300204149087042490860264811
:102C9000007858B92B48007840B93D4800681E4973
:102CA00008600846016846A0FEF742FC1E4800780E
:102CB000E8B124480078D0B90120224908700020EA
:102CC00032490870334908601149086012490860A8
:102CD000FDF7B0FFC820FFF741FB11480068FDF782
:102CE000E6FC044622460B4642A0FEF721FC0A20E1
:102CF000FFF734FB42E700000000A0400000C8429C
:102D00001C01002050010020CDCCCC3D84010020CE
:102D10003C00002034000020380000209A99E44351
:102D200048000020440000204C0000204D000020FE
:102D3000C0EC9E3D500000205400002058000020B0
:102D40007800002079000020E590AFE58AA8000017
:102D50000C00002010000020F600002033338341D7
:102D6000180100204779726F5A3A20252E326620CA
:102D70006465672F732C200A20416E676C653A20CA
:102D8000252E3266206465670A00000014000020CA
:102D90001C00002018000020E588B0E8BEBEE8B79F
:102DA000AFE7A88BE782B93A20252E3166636DEF35
:102DB000BC8CE5819CE8BDA6256C756D730A00008E
:102DC000E8B7AFE7A88BE782B9E5819CE8BDA6E745
:102DD000BB93E69D9FEFBC8CE681A2E5A48DE8A1A4
:102DE0008CE9A9B6EFBC8CE9809FE5BAA63A2564C8
:102DF0000A000000E588B0E8BEBEE69C80E7BB881C
:102E0000E99888E580BC3A20252E3166636DEFBCD9
:102E10008CE5819CE6ADA2E5B08FE8BDA65C6E00B6
:102E200010B50446A2B20021084600F06BFB094829
:102E3000027806210020FFF7EFFC0648007808B969
:102E4000012000E00020024607210020FFF7E4FCFB
:102E500010BD00002000002010B50446A2B20121E0
:102E6000002000F04FFB0948027800210120FFF705
:102E7000D3FC0648007808B9012000E00020024693
:102E800001210846FFF7C8FC10BD0000210000200A
:102E900010B54FF47A720021084600F025FA00229E
:102EA00006211046FFF7E6FB002207211046FFF738
:102EB000E1FB4FF47A720121002000F015FA0022A4
:102EC00011460120FFF7D6FB002201210846FFF73B
:102ED000D1FB10BD70B505460C46002D08DB012066
:102EE000114908702846FDF789FB1049086007E082
:102EF00000200D4908706842FDF780FB0B4908600F
:102F0000002C08DB01200A4908702046FDF776FBFB
:102F10000849086007E00020054908706042FDF795
:102F20006DFB0449086070BD200000201C010020DA
:102F3000210000205001002010B504460CB90020EB
:102F400010BD13A12046FDF7EDF820B912A12046CF
:102F5000FDF7E8F808B10120F2E711A12046FDF7DE
:102F6000E1F820B910A12046FDF7DCF808B10220F5
:102F7000E6E70FA12046FDF7D5F820B90EA12046BF
:102F8000FDF7D0F808B10320DAE70020D8E7000009
:102F900053434953530000004A49414E000000008A
:102FA00048414D4D4552000043485549000000003E
:102FB0004C49474854000000444148554F00000028
:102FC0002DE9F0410446D4E90001FDF719F9A060AC
:102FD000206B01282DD1D4E90201FDF711F9054636
:102FE0006169FDF713F92062A168A069FDF70EF988
:102FF000A0624FF08040E168FDF708F90746A1683C
:10300000FDF701F906462169FDF7A8F80546E169D3
:10301000FDF7FCF86062A16A206AFDF79FF806469A
:10302000616AFDF79BF80546E16AFDF797F8E062F3
:1030300021E0206BF8B9A1686069FDF7E7F820622C
:10304000A168A069FDF7E2F80546A16AFDF786F8D8
:10305000A062D4E90201FDF7D3F80546E169FDF766
:10306000D5F86062A16A206AFDF778F80546616AC2
:10307000FDF774F8E062E1682161A168E160BDE8F4
:10308000F08100002DE9F04104467648007878B9D7
:1030900000210846FFF71EFF00207349C8627349EC
:1030A000C862FFF7BDFE0020FFF7D6FEBDE8F08145
:1030B0007CB900210846FFF70DFF0020FFF7B0FEA6
:1030C0000020FFF7C9FE00206949086069490860CF
:1030D000ECE7694800686949086069480068486029
:1030E0000846FFF76DFF2046FDF788FA80466348E3
:1030F000C16A4046FDF732F80746FDF7ABFA0546D0
:103100002046FDF77BFA80465C48C16A4046FDF7E1
:1031100077F80746FDF79EFA06462946FFF7DAFEDE
:1031200058480068012803D1FFF73CFC00F022FB5F
:103130005548007830B14E480068FDF75FFA4A49BB
:10314000486006E04A4800684042FDF757FA4649A1
:1031500048604E48007830B146480068FDF74EFAA6
:103160004249486006E0434800684042FDF746FA9D
:103170003E49486043480068012836D144480078F9
:1031800090BB0120434908703A480068FDF736FAC1
:1031900020F0004736480068FDF730FA20F000487C
:1031A00039464046FCF7DAFF06464FF08041FDF70E
:1031B0005FF80546384801682846FDF727F80646B7
:1031C000364801683046FCF7C9FF34490860344886
:1031D000016832480068FDF7A3FA02D801202C49A3
:1031E0000870FFF78DF81CE0FFE72A480078C0B1AF
:1031F00024480068A8B900202849086025490870BB
:10320000234908702749087000BF06E00021264ABC
:1032100002EBC0021171411CC8B2244909788842EE
:10322000F4DB002012490860124908600E48FFF7DD
:10323000C7FE0E48FFF7C4FE0B4800F041F80B48EC
:1032400000F03EF80849C86AFDF704FA0546FFF7A2
:10325000E7FD0649C86AFDF7FDF90546FFF7FCFDE5
:1032600000BF23E7400000201C0100205001002087
:1032700024000020280000203400002084010020C9
:10328000000100203C000020200000202100002040
:103290004C0000204D000020500000204400002081
:1032A000480000207900002058000020780000200D
:1032B00010B5029C016342618361C46110BD0000CE
:1032C00010B504460749E06AFDF72AFA01D8054817
:1032D000E0620021E06AFDF719FA01D80020E062FF
:1032E00010BD0000005043472DE9F04104460D4653
:1032F00016462846E91705EB91718910A5EB810167
:10330000491CCFB25148C0690121A14008434F492F
:10331000C8614F4890FBF6F0401E4E4951F824100A
:10332000888547204B4951F824100885284600F02D
:1033300093F8012F06D0022F1ED0032F36D0042F72
:1033400069D14DE0434850F82400008B40F0600004
:10335000404951F8241008833E4850F82400008B5F
:1033600040F008003B4951F82410088300203949F7
:1033700051F8241088864EE0364850F82400008B1F
:1033800040F4C040334951F824100883314850F8C4
:103390002400008B40F400602E4951F8241008836B
:1033A00000202C4951F82410088734E0294850F8AF
:1033B0002400808B40F06000264951F82410888357
:1033C000244850F82400808B40F00800214951F82F
:1033D0002410888300201F4951F8241088871AE0A0
:1033E0001C4850F82400808B40F4C040194951F823
:1033F00024108883174850F82400808B40F4006024
:10340000144951F8241088830020124951F82410DF
:10341000A1F8400000BF00BF0E4850F82400008C07
:10342000791E8A000121914008430A4951F824106D
:103430000884084850F82400008840F081000549BD
:1034400051F824100880BDE8F0810000001002400F
:1034500040420F00D000002010B504460C2C4FD283
:10346000DFE804F0060C12181E242A30363C4248CD
:10347000032200210846FFF7FDF841E00322012165
:103480000020FFF7F7F83BE0032202210020FFF7BE
:10349000F1F835E0032211460020FFF7EBF82FE0AA
:1034A000032206210020FFF7E5F829E00322072187
:1034B0000020FFF7DFF823E0032200210120FFF7BF
:1034C000D9F81DE0032201210846FFF7D3F817E0E1
:1034D000032206210120FFF7CDF811E00322072186
:1034E0000120FFF7C7F80BE0032208210120FFF7B6
:1034F000C1F805E0032209210120FFF7BBF800BF56
:1035000000BF10BD2DE9F84F04460D46174628466A
:10351000E91705EB91718910A5EB8101491C01F0B8
:10352000FF084CF25030874200DB0746384850F81D
:103530002400868DB8F1010F09D0B8F1020F1DD01B
:10354000B8F1030F31D0B8F1040F5DD144E0701C25
:10355000FDF754F883463846FDF759F82D49009099
:10356000FCF786FE82465946FCF750FE8146FDF781
:103570008AF8274951F82410888645E0701CFDF729
:103580003DF800903846FDF742F883462149FCF7A4
:103590006FFE82460099FCF739FE8146FDF773F80D
:1035A0001B4951F8241008872EE0701CFDF726F8FF
:1035B00000903846FDF72BF883461649FCF758FE75
:1035C00082460099FCF722FE8146FDF75CF810491F
:1035D00051F82410888717E0701CFDF70FF8009051
:1035E0003846FDF714F883460A49FCF741FE824647
:1035F0000099FCF70BFE8146FDF745F8044951F8A8
:103600002410A1F8400000BF00BFBDE8F88F000003
:10361000D000002000504347012804D0022806D0E3
:1036200003280CD107E07821084A11600BE06E21D5
:10363000064A116007E06E21044A116003E05A2136
:10364000024A116000BF00BF704700003800002030
:1036500010B501200B49087000200B4908700B4978
:1036600008600B49086000210846FFF733FC002082
:103670000849C8620849C862FFF7D2FB0020FFF77B
:10368000EBFB10BD4100002040000020380000206E
:103690003C0000201C0100205001002070B50446B1
:1036A0000D46FEF725FC06461148007800B170BDB6
:1036B00010480078305CA04200D0F8E70E48047053
:1036C0000E48057001200E4908700A480078042849
:1036D00002DBFFF7BDFFEAE706480078401C05491A
:1036E000087008460078FFF797FF00BFDFE700008B
:1036F000410000207B0000207D0000207E00002093
:103700007C00002070B504460D4616461748C06977
:103710000121A14008431549C86105EB850040001F
:10372000401E134951F82410888541F61F40104966
:1037300051F8241008850E4850F82400008840F005
:1037400001000B4951F824100880094850F8240062
:10375000808940F00100064951F82410888104F165
:103760001C00C1B23046FDF7ABFC70BD001002403A
:10377000D00000202DE9F04F87B051A103C9CDE959
:103780000501514800788DF80C00504800788DF8FC
:103790000D004F4800788DF80E004E4800788DF8E7
:1037A0000F004D4800788DF810004C4800788DF8D7
:1037B00011004B4800788DF812004A4800788DF8C7
:1037C00013004FF0000AD146002408E003A8005D72
:1037D00020B105A80057824409F10109641C082C96
:1037E000F4DBB9F1000F0CDD4846FCF707FF02904F
:1037F0005046FCF703FF01900299FCF739FD05469E
:1038000001E03948056829463848FCF7FFFC02907A
:10381000374801683748FCF7F9FC01900299FCF73A
:103820009DFC334908603048016831480068FCF766
:10383000E7FC4FF082410090FCF7E8FC02902C4836
:1038400001684FF08340FCF7E1FC01900299FCF71E
:1038500085FC8346264800682349086024480068A0
:1038600020F000404FF081410190FCF7CFFC029026
:10387000FCF7F0FE204909680E1A462E00DA4626AB
:103880005846FCF7E7FE87195846FCF7E3FEA6EB1F
:103890000008282F00DA2827B8F1280F01DA4FF0A6
:1038A0002808FF2F00DDFF27B8F1FF0F01DD4FF0E3
:1038B000FF0841463846FFF70DFB07B0BDE8F08F23
:1038C000F9FBFDFF010305078400002085000020AF
:1038D000860000208700002088000020890000204A
:1038E0008A0000208B0000208C0000209A99993ECD
:1038F000900000203333333F380000202DE9F04F93
:1039000089B0044689460CB91F4800E01F48834629
:103910004FEA09109BFBF0FA5046FCF78EFECDE90A
:1039200004014846FCF778FE07460022184BFCF7D6
:1039300084FD05460E465846FCF760FE0746FCF738
:10394000B6FE2A463346CDE90001FCF7E8FDCDE995
:103950000201DDE90423FCF76AFDCDE90601FCF76D
:10396000B9FE08904FF083410898FCF74FFC08908F
:103970000898FCF788FE40EA0A10064951F824101E
:10398000088109B0BDE8F08F00A24A040051250269
:1039900000003040DC0000200146034850F82100C0
:1039A0008088C0B270470000DC00002070B504467B
:1039B0000E46154634B91448806940F480401249D7
:1039C000886108E01048C06904F1100101228A40B2
:1039D00010430D49C861204600F01AF831462046D0
:1039E000FFF78CFF094850F82400808942F22C012F
:1039F0000843064951F82410888104F12500C1B21A
:103A00002846FDF75DFB70BD00100240DC00002081
:103A100010B5044624B1012C0DD0022C21D115E0A3
:103A2000032209210020FEF725FE04220A2100209E
:103A3000FEF720FE15E0032202210020FEF71AFE09
:103A4000042203210020FEF715FE0AE003220A21CA
:103A50000120FEF70FFE04220B210120FEF70AFED3
:103A600000BF00BF10BD2DE9F04104460CB9BDE810
:103A7000F08100E0641C20782328FBD020782428E3
:103A8000F8D020782028F5D02C212046FCF75CFBCC
:103A9000054605B9EBE7002028700026207842286B
:103AA00002D02078622801D101260EE02078432838
:103AB00002D02078632801D1022606E0207844282D
:103AC00002D02078642800D10326681CFFF734FA5E
:103AD000074639463046FFF7E1FD00BFC7E7000162
:103AE00002030000020103004FBB610567ACDD3F2C
:103AF000182D4454FB21E93F9BF681D20B73EF3F15
:103B0000182D4454FB21F93FE2652F227F2B7A3C8C
:103B1000075C143326A6813CBDCBF07A8807703C45
:103B2000075C143326A6913CC4EB98999999C9BFB8
:103B3000711623FEC671BCBF6D9A74AFF2B0B3BFED
:103B40009AFDDE522DDEADBF2F6C6A2C44B4A2BFAD
:103B50000D5555555555D53FFF8300922449C23F19
:103B60006E204CC5CD45B73F513DD0A0660DB13F4D
:103B7000EB0D76244B7BA93F11DA22E33AAD903F5F
:103B80000000000000000000A83B0008000000202A
:103B90001C0100003C160008C43C00081C01002069
:103BA000C40400004C1600080000000000000000E3
:103BB0000000000000000000000000000000000005
:103BC0000000000082000000010100000000000071
:103BD00000000000000000000000000000000000E5
:103BE00000000000010000000100000000000000D3
:103BF0009A99E44300000000C0EC9E3D8813000049
:103C00000000C842000000009A1960430000000054
:103C1000CD0CA243000000009A99E343000000008D
:103C2000040001010000000000000000000000008E
:103C30000000000000000000000000006F12833A46
:103C4000A69B443B0000003F0000803F00000000B6
:103C5000000000000000803F0AD7A33B00000000E6
:103C6000000000000000000000000000000801400B
:103C7000000C014000100140000000400004004022
:103C80000008004000380140004400400048004067
:103C90000000000000000000000000000000000024
:103CA0000000000000000000000000000000000014
:103CB0000000000000000000000000000000000004
:043CC0000000000000
:04000005080000ED02
:00000001FF
